{
	"contracts/agentpay.sol": {
		"AgentPay": {
			"abi": [
				{
					"inputs": [
						{
							"internalType": "address",
							"name": "_token",
							"type": "address"
						}
					],
					"stateMutability": "nonpayable",
					"type": "constructor"
				},
				{
					"anonymous": false,
					"inputs": [
						{
							"indexed": true,
							"internalType": "address",
							"name": "subscriber",
							"type": "address"
						},
						{
							"indexed": false,
							"internalType": "address",
							"name": "recipient",
							"type": "address"
						},
						{
							"indexed": false,
							"internalType": "uint256",
							"name": "amount",
							"type": "uint256"
						}
					],
					"name": "PaymentProcessed",
					"type": "event"
				},
				{
					"anonymous": false,
					"inputs": [
						{
							"indexed": true,
							"internalType": "address",
							"name": "subscriber",
							"type": "address"
						}
					],
					"name": "SubscriptionCanceled",
					"type": "event"
				},
				{
					"anonymous": false,
					"inputs": [
						{
							"indexed": true,
							"internalType": "address",
							"name": "subscriber",
							"type": "address"
						},
						{
							"indexed": false,
							"internalType": "address",
							"name": "recipient",
							"type": "address"
						},
						{
							"indexed": false,
							"internalType": "uint256",
							"name": "amount",
							"type": "uint256"
						},
						{
							"indexed": false,
							"internalType": "uint256",
							"name": "interval",
							"type": "uint256"
						}
					],
					"name": "SubscriptionCreated",
					"type": "event"
				},
				{
					"inputs": [],
					"name": "cancelSubscription",
					"outputs": [],
					"stateMutability": "nonpayable",
					"type": "function"
				},
				{
					"inputs": [
						{
							"internalType": "address",
							"name": "_recipient",
							"type": "address"
						},
						{
							"internalType": "uint256",
							"name": "_amount",
							"type": "uint256"
						},
						{
							"internalType": "uint256",
							"name": "_interval",
							"type": "uint256"
						}
					],
					"name": "createSubscription",
					"outputs": [],
					"stateMutability": "nonpayable",
					"type": "function"
				},
				{
					"inputs": [],
					"name": "owner",
					"outputs": [
						{
							"internalType": "address",
							"name": "",
							"type": "address"
						}
					],
					"stateMutability": "view",
					"type": "function"
				},
				{
					"inputs": [
						{
							"internalType": "address",
							"name": "_subscriber",
							"type": "address"
						}
					],
					"name": "processPayment",
					"outputs": [],
					"stateMutability": "nonpayable",
					"type": "function"
				},
				{
					"inputs": [
						{
							"internalType": "address",
							"name": "",
							"type": "address"
						}
					],
					"name": "subscriptions",
					"outputs": [
						{
							"internalType": "address",
							"name": "subscriber",
							"type": "address"
						},
						{
							"internalType": "uint256",
							"name": "amount",
							"type": "uint256"
						},
						{
							"internalType": "uint256",
							"name": "interval",
							"type": "uint256"
						},
						{
							"internalType": "uint256",
							"name": "nextPayment",
							"type": "uint256"
						},
						{
							"internalType": "address",
							"name": "recipient",
							"type": "address"
						},
						{
							"internalType": "bool",
							"name": "active",
							"type": "bool"
						}
					],
					"stateMutability": "view",
					"type": "function"
				},
				{
					"inputs": [],
					"name": "token",
					"outputs": [
						{
							"internalType": "contract IERC20",
							"name": "",
							"type": "address"
						}
					],
					"stateMutability": "view",
					"type": "function"
				}
			],
			"devdoc": {
				"kind": "dev",
				"methods": {},
				"version": 1
			},
			"evm": {
				"assembly": "    /* \"contracts/agentpay.sol\":260:2195  contract AgentPay {... */\n  mstore(0x40, 0x80)\n    /* \"contracts/agentpay.sol\":848:943  constructor(address _token) {... */\n  callvalue\n  dup1\n  iszero\n  tag_1\n  jumpi\n  0x00\n  dup1\n  revert\ntag_1:\n  pop\n  mload(0x40)\n  sub(codesize, bytecodeSize)\n  dup1\n  bytecodeSize\n  dup4\n  codecopy\n  dup2\n  dup2\n  add\n  0x40\n  mstore\n  dup2\n  add\n  swap1\n  tag_2\n  swap2\n  swap1\n  tag_3\n  jump\t// in\ntag_2:\n    /* \"contracts/agentpay.sol\":894:904  msg.sender */\n  caller\n    /* \"contracts/agentpay.sol\":886:891  owner */\n  0x00\n  dup1\n    /* \"contracts/agentpay.sol\":886:904  owner = msg.sender */\n  0x0100\n  exp\n  dup2\n  sload\n  dup2\n  0xffffffffffffffffffffffffffffffffffffffff\n  mul\n  not\n  and\n  swap1\n  dup4\n  0xffffffffffffffffffffffffffffffffffffffff\n  and\n  mul\n  or\n  swap1\n  sstore\n  pop\n    /* \"contracts/agentpay.sol\":929:935  _token */\n  dup1\n    /* \"contracts/agentpay.sol\":914:919  token */\n  0x01\n  0x00\n    /* \"contracts/agentpay.sol\":914:936  token = IERC20(_token) */\n  0x0100\n  exp\n  dup2\n  sload\n  dup2\n  0xffffffffffffffffffffffffffffffffffffffff\n  mul\n  not\n  and\n  swap1\n  dup4\n  0xffffffffffffffffffffffffffffffffffffffff\n  and\n  mul\n  or\n  swap1\n  sstore\n  pop\n    /* \"contracts/agentpay.sol\":848:943  constructor(address _token) {... */\n  pop\n    /* \"contracts/agentpay.sol\":260:2195  contract AgentPay {... */\n  jump(tag_6)\n    /* \"#utility.yul\":88:205   */\ntag_8:\n    /* \"#utility.yul\":197:198   */\n  0x00\n    /* \"#utility.yul\":194:195   */\n  dup1\n    /* \"#utility.yul\":187:199   */\n  revert\n    /* \"#utility.yul\":334:460   */\ntag_10:\n    /* \"#utility.yul\":371:378   */\n  0x00\n    /* \"#utility.yul\":411:453   */\n  0xffffffffffffffffffffffffffffffffffffffff\n    /* \"#utility.yul\":404:409   */\n  dup3\n    /* \"#utility.yul\":400:454   */\n  and\n    /* \"#utility.yul\":389:454   */\n  swap1\n  pop\n    /* \"#utility.yul\":334:460   */\n  swap2\n  swap1\n  pop\n  jump\t// out\n    /* \"#utility.yul\":466:562   */\ntag_11:\n    /* \"#utility.yul\":503:510   */\n  0x00\n    /* \"#utility.yul\":532:556   */\n  tag_20\n    /* \"#utility.yul\":550:555   */\n  dup3\n    /* \"#utility.yul\":532:556   */\n  tag_10\n  jump\t// in\ntag_20:\n    /* \"#utility.yul\":521:556   */\n  swap1\n  pop\n    /* \"#utility.yul\":466:562   */\n  swap2\n  swap1\n  pop\n  jump\t// out\n    /* \"#utility.yul\":568:690   */\ntag_12:\n    /* \"#utility.yul\":641:665   */\n  tag_22\n    /* \"#utility.yul\":659:664   */\n  dup2\n    /* \"#utility.yul\":641:665   */\n  tag_11\n  jump\t// in\ntag_22:\n    /* \"#utility.yul\":634:639   */\n  dup2\n    /* \"#utility.yul\":631:666   */\n  eq\n    /* \"#utility.yul\":621:684   */\n  tag_23\n  jumpi\n    /* \"#utility.yul\":680:681   */\n  0x00\n    /* \"#utility.yul\":677:678   */\n  dup1\n    /* \"#utility.yul\":670:682   */\n  revert\n    /* \"#utility.yul\":621:684   */\ntag_23:\n    /* \"#utility.yul\":568:690   */\n  pop\n  jump\t// out\n    /* \"#utility.yul\":696:839   */\ntag_13:\n    /* \"#utility.yul\":753:758   */\n  0x00\n    /* \"#utility.yul\":784:790   */\n  dup2\n    /* \"#utility.yul\":778:791   */\n  mload\n    /* \"#utility.yul\":769:791   */\n  swap1\n  pop\n    /* \"#utility.yul\":800:833   */\n  tag_25\n    /* \"#utility.yul\":827:832   */\n  dup2\n    /* \"#utility.yul\":800:833   */\n  tag_12\n  jump\t// in\ntag_25:\n    /* \"#utility.yul\":696:839   */\n  swap3\n  swap2\n  pop\n  pop\n  jump\t// out\n    /* \"#utility.yul\":845:1196   */\ntag_3:\n    /* \"#utility.yul\":915:921   */\n  0x00\n    /* \"#utility.yul\":964:966   */\n  0x20\n    /* \"#utility.yul\":952:961   */\n  dup3\n    /* \"#utility.yul\":943:950   */\n  dup5\n    /* \"#utility.yul\":939:962   */\n  sub\n    /* \"#utility.yul\":935:967   */\n  slt\n    /* \"#utility.yul\":932:1051   */\n  iszero\n  tag_27\n  jumpi\n    /* \"#utility.yul\":970:1049   */\n  tag_28\n  tag_8\n  jump\t// in\ntag_28:\n    /* \"#utility.yul\":932:1051   */\ntag_27:\n    /* \"#utility.yul\":1090:1091   */\n  0x00\n    /* \"#utility.yul\":1115:1179   */\n  tag_29\n    /* \"#utility.yul\":1171:1178   */\n  dup5\n    /* \"#utility.yul\":1162:1168   */\n  dup3\n    /* \"#utility.yul\":1151:1160   */\n  dup6\n    /* \"#utility.yul\":1147:1169   */\n  add\n    /* \"#utility.yul\":1115:1179   */\n  tag_13\n  jump\t// in\ntag_29:\n    /* \"#utility.yul\":1105:1179   */\n  swap2\n  pop\n    /* \"#utility.yul\":1061:1189   */\n  pop\n    /* \"#utility.yul\":845:1196   */\n  swap3\n  swap2\n  pop\n  pop\n  jump\t// out\n    /* \"contracts/agentpay.sol\":260:2195  contract AgentPay {... */\ntag_6:\n  dataSize(sub_0)\n  dup1\n  dataOffset(sub_0)\n  0x00\n  codecopy\n  0x00\n  return\nstop\n\nsub_0: assembly {\n        /* \"contracts/agentpay.sol\":260:2195  contract AgentPay {... */\n      mstore(0x40, 0x80)\n      callvalue\n      dup1\n      iszero\n      tag_1\n      jumpi\n      0x00\n      dup1\n      revert\n    tag_1:\n      pop\n      jumpi(tag_2, lt(calldatasize, 0x04))\n      shr(0xe0, calldataload(0x00))\n      dup1\n      0x24e9edb0\n      eq\n      tag_3\n      jumpi\n      dup1\n      0x8a2405a8\n      eq\n      tag_4\n      jumpi\n      dup1\n      0x8da5cb5b\n      eq\n      tag_5\n      jumpi\n      dup1\n      0x8fe123d7\n      eq\n      tag_6\n      jumpi\n      dup1\n      0xf046395a\n      eq\n      tag_7\n      jumpi\n      dup1\n      0xfc0c546a\n      eq\n      tag_8\n      jumpi\n    tag_2:\n      0x00\n      dup1\n      revert\n        /* \"contracts/agentpay.sol\":1972:2193  function cancelSubscription() external {... */\n    tag_3:\n      tag_9\n      tag_10\n      jump\t// in\n    tag_9:\n      stop\n        /* \"contracts/agentpay.sol\":949:1503  function createSubscription(address _recipient, uint256 _amount, uint256 _interval) external {... */\n    tag_4:\n      tag_11\n      0x04\n      dup1\n      calldatasize\n      sub\n      dup2\n      add\n      swap1\n      tag_12\n      swap2\n      swap1\n      tag_13\n      jump\t// in\n    tag_12:\n      tag_14\n      jump\t// in\n    tag_11:\n      stop\n        /* \"contracts/agentpay.sol\":284:304  address public owner */\n    tag_5:\n      tag_15\n      tag_16\n      jump\t// in\n    tag_15:\n      mload(0x40)\n      tag_17\n      swap2\n      swap1\n      tag_18\n      jump\t// in\n    tag_17:\n      mload(0x40)\n      dup1\n      swap2\n      sub\n      swap1\n      return\n        /* \"contracts/agentpay.sol\":1509:1966  function processPayment(address _subscriber) external {... */\n    tag_6:\n      tag_19\n      0x04\n      dup1\n      calldatasize\n      sub\n      dup2\n      add\n      swap1\n      tag_20\n      swap2\n      swap1\n      tag_21\n      jump\t// in\n    tag_20:\n      tag_22\n      jump\t// in\n    tag_19:\n      stop\n        /* \"contracts/agentpay.sol\":524:577  mapping(address => Subscription) public subscriptions */\n    tag_7:\n      tag_23\n      0x04\n      dup1\n      calldatasize\n      sub\n      dup2\n      add\n      swap1\n      tag_24\n      swap2\n      swap1\n      tag_21\n      jump\t// in\n    tag_24:\n      tag_25\n      jump\t// in\n    tag_23:\n      mload(0x40)\n      tag_26\n      swap7\n      swap6\n      swap5\n      swap4\n      swap3\n      swap2\n      swap1\n      tag_27\n      jump\t// in\n    tag_26:\n      mload(0x40)\n      dup1\n      swap2\n      sub\n      swap1\n      return\n        /* \"contracts/agentpay.sol\":310:329  IERC20 public token */\n    tag_8:\n      tag_28\n      tag_29\n      jump\t// in\n    tag_28:\n      mload(0x40)\n      tag_30\n      swap2\n      swap1\n      tag_31\n      jump\t// in\n    tag_30:\n      mload(0x40)\n      dup1\n      swap2\n      sub\n      swap1\n      return\n        /* \"contracts/agentpay.sol\":1972:2193  function cancelSubscription() external {... */\n    tag_10:\n        /* \"contracts/agentpay.sol\":2029:2042  subscriptions */\n      0x02\n        /* \"contracts/agentpay.sol\":2029:2054  subscriptions[msg.sender] */\n      0x00\n        /* \"contracts/agentpay.sol\":2043:2053  msg.sender */\n      caller\n        /* \"contracts/agentpay.sol\":2029:2054  subscriptions[msg.sender] */\n      0xffffffffffffffffffffffffffffffffffffffff\n      and\n      0xffffffffffffffffffffffffffffffffffffffff\n      and\n      dup2\n      mstore\n      0x20\n      add\n      swap1\n      dup2\n      mstore\n      0x20\n      add\n      0x00\n      keccak256\n        /* \"contracts/agentpay.sol\":2029:2061  subscriptions[msg.sender].active */\n      0x04\n      add\n      0x14\n      swap1\n      sload\n      swap1\n      0x0100\n      exp\n      swap1\n      div\n      0xff\n      and\n        /* \"contracts/agentpay.sol\":2021:2088  require(subscriptions[msg.sender].active, \"No active subscription\") */\n      tag_33\n      jumpi\n      mload(0x40)\n      0x08c379a000000000000000000000000000000000000000000000000000000000\n      dup2\n      mstore\n      0x04\n      add\n      tag_34\n      swap1\n      tag_35\n      jump\t// in\n    tag_34:\n      mload(0x40)\n      dup1\n      swap2\n      sub\n      swap1\n      revert\n    tag_33:\n        /* \"contracts/agentpay.sol\":2133:2138  false */\n      0x00\n        /* \"contracts/agentpay.sol\":2098:2111  subscriptions */\n      0x02\n        /* \"contracts/agentpay.sol\":2098:2123  subscriptions[msg.sender] */\n      0x00\n        /* \"contracts/agentpay.sol\":2112:2122  msg.sender */\n      caller\n        /* \"contracts/agentpay.sol\":2098:2123  subscriptions[msg.sender] */\n      0xffffffffffffffffffffffffffffffffffffffff\n      and\n      0xffffffffffffffffffffffffffffffffffffffff\n      and\n      dup2\n      mstore\n      0x20\n      add\n      swap1\n      dup2\n      mstore\n      0x20\n      add\n      0x00\n      keccak256\n        /* \"contracts/agentpay.sol\":2098:2130  subscriptions[msg.sender].active */\n      0x04\n      add\n      0x14\n        /* \"contracts/agentpay.sol\":2098:2138  subscriptions[msg.sender].active = false */\n      0x0100\n      exp\n      dup2\n      sload\n      dup2\n      0xff\n      mul\n      not\n      and\n      swap1\n      dup4\n      iszero\n      iszero\n      mul\n      or\n      swap1\n      sstore\n      pop\n        /* \"contracts/agentpay.sol\":2175:2185  msg.sender */\n      caller\n        /* \"contracts/agentpay.sol\":2154:2186  SubscriptionCanceled(msg.sender) */\n      0xffffffffffffffffffffffffffffffffffffffff\n      and\n      0x5213c53f2b929aa370ea1f22f57b571b8a8d78a193eb26b0d9596561e335aa04\n      mload(0x40)\n      mload(0x40)\n      dup1\n      swap2\n      sub\n      swap1\n      log2\n        /* \"contracts/agentpay.sol\":1972:2193  function cancelSubscription() external {... */\n      jump\t// out\n        /* \"contracts/agentpay.sol\":949:1503  function createSubscription(address _recipient, uint256 _amount, uint256 _interval) external {... */\n    tag_14:\n        /* \"contracts/agentpay.sol\":1096:1101  false */\n      0x00\n        /* \"contracts/agentpay.sol\":1060:1101  subscriptions[msg.sender].active == false */\n      iszero\n      iszero\n        /* \"contracts/agentpay.sol\":1060:1073  subscriptions */\n      0x02\n        /* \"contracts/agentpay.sol\":1060:1085  subscriptions[msg.sender] */\n      0x00\n        /* \"contracts/agentpay.sol\":1074:1084  msg.sender */\n      caller\n        /* \"contracts/agentpay.sol\":1060:1085  subscriptions[msg.sender] */\n      0xffffffffffffffffffffffffffffffffffffffff\n      and\n      0xffffffffffffffffffffffffffffffffffffffff\n      and\n      dup2\n      mstore\n      0x20\n      add\n      swap1\n      dup2\n      mstore\n      0x20\n      add\n      0x00\n      keccak256\n        /* \"contracts/agentpay.sol\":1060:1092  subscriptions[msg.sender].active */\n      0x04\n      add\n      0x14\n      swap1\n      sload\n      swap1\n      0x0100\n      exp\n      swap1\n      div\n      0xff\n      and\n        /* \"contracts/agentpay.sol\":1060:1101  subscriptions[msg.sender].active == false */\n      iszero\n      iszero\n      eq\n        /* \"contracts/agentpay.sol\":1052:1133  require(subscriptions[msg.sender].active == false, \"Subscription already exists\") */\n      tag_37\n      jumpi\n      mload(0x40)\n      0x08c379a000000000000000000000000000000000000000000000000000000000\n      dup2\n      mstore\n      0x04\n      add\n      tag_38\n      swap1\n      tag_39\n      jump\t// in\n    tag_38:\n      mload(0x40)\n      dup1\n      swap2\n      sub\n      swap1\n      revert\n    tag_37:\n        /* \"contracts/agentpay.sol\":1180:1417  Subscription({... */\n      mload(0x40)\n      dup1\n      0xc0\n      add\n      0x40\n      mstore\n      dup1\n        /* \"contracts/agentpay.sol\":1219:1229  msg.sender */\n      caller\n        /* \"contracts/agentpay.sol\":1180:1417  Subscription({... */\n      0xffffffffffffffffffffffffffffffffffffffff\n      and\n      dup2\n      mstore\n      0x20\n      add\n        /* \"contracts/agentpay.sol\":1251:1258  _amount */\n      dup4\n        /* \"contracts/agentpay.sol\":1180:1417  Subscription({... */\n      dup2\n      mstore\n      0x20\n      add\n        /* \"contracts/agentpay.sol\":1282:1291  _interval */\n      dup3\n        /* \"contracts/agentpay.sol\":1180:1417  Subscription({... */\n      dup2\n      mstore\n      0x20\n      add\n        /* \"contracts/agentpay.sol\":1336:1345  _interval */\n      dup3\n        /* \"contracts/agentpay.sol\":1318:1333  block.timestamp */\n      timestamp\n        /* \"contracts/agentpay.sol\":1318:1345  block.timestamp + _interval */\n      tag_40\n      swap2\n      swap1\n      tag_41\n      jump\t// in\n    tag_40:\n        /* \"contracts/agentpay.sol\":1180:1417  Subscription({... */\n      dup2\n      mstore\n      0x20\n      add\n        /* \"contracts/agentpay.sol\":1370:1380  _recipient */\n      dup5\n        /* \"contracts/agentpay.sol\":1180:1417  Subscription({... */\n      0xffffffffffffffffffffffffffffffffffffffff\n      and\n      dup2\n      mstore\n      0x20\n      add\n        /* \"contracts/agentpay.sol\":1402:1406  true */\n      0x01\n        /* \"contracts/agentpay.sol\":1180:1417  Subscription({... */\n      iszero\n      iszero\n      dup2\n      mstore\n      pop\n        /* \"contracts/agentpay.sol\":1152:1165  subscriptions */\n      0x02\n        /* \"contracts/agentpay.sol\":1152:1177  subscriptions[msg.sender] */\n      0x00\n        /* \"contracts/agentpay.sol\":1166:1176  msg.sender */\n      caller\n        /* \"contracts/agentpay.sol\":1152:1177  subscriptions[msg.sender] */\n      0xffffffffffffffffffffffffffffffffffffffff\n      and\n      0xffffffffffffffffffffffffffffffffffffffff\n      and\n      dup2\n      mstore\n      0x20\n      add\n      swap1\n      dup2\n      mstore\n      0x20\n      add\n      0x00\n      keccak256\n        /* \"contracts/agentpay.sol\":1152:1417  subscriptions[msg.sender] = Subscription({... */\n      0x00\n      dup3\n      add\n      mload\n      dup2\n      0x00\n      add\n      exp(0x0100, 0x00)\n      dup2\n      sload\n      dup2\n      0xffffffffffffffffffffffffffffffffffffffff\n      mul\n      not\n      and\n      swap1\n      dup4\n      0xffffffffffffffffffffffffffffffffffffffff\n      and\n      mul\n      or\n      swap1\n      sstore\n      pop\n      0x20\n      dup3\n      add\n      mload\n      dup2\n      0x01\n      add\n      sstore\n      0x40\n      dup3\n      add\n      mload\n      dup2\n      0x02\n      add\n      sstore\n      0x60\n      dup3\n      add\n      mload\n      dup2\n      0x03\n      add\n      sstore\n      0x80\n      dup3\n      add\n      mload\n      dup2\n      0x04\n      add\n      exp(0x0100, 0x00)\n      dup2\n      sload\n      dup2\n      0xffffffffffffffffffffffffffffffffffffffff\n      mul\n      not\n      and\n      swap1\n      dup4\n      0xffffffffffffffffffffffffffffffffffffffff\n      and\n      mul\n      or\n      swap1\n      sstore\n      pop\n      0xa0\n      dup3\n      add\n      mload\n      dup2\n      0x04\n      add\n      exp(0x0100, 0x14)\n      dup2\n      sload\n      dup2\n      0xff\n      mul\n      not\n      and\n      swap1\n      dup4\n      iszero\n      iszero\n      mul\n      or\n      swap1\n      sstore\n      pop\n      swap1\n      pop\n      pop\n        /* \"contracts/agentpay.sol\":1453:1463  msg.sender */\n      caller\n        /* \"contracts/agentpay.sol\":1433:1496  SubscriptionCreated(msg.sender, _recipient, _amount, _interval) */\n      0xffffffffffffffffffffffffffffffffffffffff\n      and\n      0x0f4fdeecf05012d6c4c168ac40ca0114e4dd83bc3ce3013c4ea7091c7b8922f3\n        /* \"contracts/agentpay.sol\":1465:1475  _recipient */\n      dup5\n        /* \"contracts/agentpay.sol\":1477:1484  _amount */\n      dup5\n        /* \"contracts/agentpay.sol\":1486:1495  _interval */\n      dup5\n        /* \"contracts/agentpay.sol\":1433:1496  SubscriptionCreated(msg.sender, _recipient, _amount, _interval) */\n      mload(0x40)\n      tag_42\n      swap4\n      swap3\n      swap2\n      swap1\n      tag_43\n      jump\t// in\n    tag_42:\n      mload(0x40)\n      dup1\n      swap2\n      sub\n      swap1\n      log2\n        /* \"contracts/agentpay.sol\":949:1503  function createSubscription(address _recipient, uint256 _amount, uint256 _interval) external {... */\n      pop\n      pop\n      pop\n      jump\t// out\n        /* \"contracts/agentpay.sol\":284:304  address public owner */\n    tag_16:\n      0x00\n      dup1\n      sload\n      swap1\n      0x0100\n      exp\n      swap1\n      div\n      0xffffffffffffffffffffffffffffffffffffffff\n      and\n      dup2\n      jump\t// out\n        /* \"contracts/agentpay.sol\":1509:1966  function processPayment(address _subscriber) external {... */\n    tag_22:\n        /* \"contracts/agentpay.sol\":1573:1597  Subscription storage sub */\n      0x00\n        /* \"contracts/agentpay.sol\":1600:1613  subscriptions */\n      0x02\n        /* \"contracts/agentpay.sol\":1600:1626  subscriptions[_subscriber] */\n      0x00\n        /* \"contracts/agentpay.sol\":1614:1625  _subscriber */\n      dup4\n        /* \"contracts/agentpay.sol\":1600:1626  subscriptions[_subscriber] */\n      0xffffffffffffffffffffffffffffffffffffffff\n      and\n      0xffffffffffffffffffffffffffffffffffffffff\n      and\n      dup2\n      mstore\n      0x20\n      add\n      swap1\n      dup2\n      mstore\n      0x20\n      add\n      0x00\n      keccak256\n        /* \"contracts/agentpay.sol\":1573:1626  Subscription storage sub = subscriptions[_subscriber] */\n      swap1\n      pop\n        /* \"contracts/agentpay.sol\":1644:1647  sub */\n      dup1\n        /* \"contracts/agentpay.sol\":1644:1654  sub.active */\n      0x04\n      add\n      0x14\n      swap1\n      sload\n      swap1\n      0x0100\n      exp\n      swap1\n      div\n      0xff\n      and\n        /* \"contracts/agentpay.sol\":1636:1682  require(sub.active, \"Subscription not active\") */\n      tag_45\n      jumpi\n      mload(0x40)\n      0x08c379a000000000000000000000000000000000000000000000000000000000\n      dup2\n      mstore\n      0x04\n      add\n      tag_46\n      swap1\n      tag_47\n      jump\t// in\n    tag_46:\n      mload(0x40)\n      dup1\n      swap2\n      sub\n      swap1\n      revert\n    tag_45:\n        /* \"contracts/agentpay.sol\":1719:1722  sub */\n      dup1\n        /* \"contracts/agentpay.sol\":1719:1734  sub.nextPayment */\n      0x03\n      add\n      sload\n        /* \"contracts/agentpay.sol\":1700:1715  block.timestamp */\n      timestamp\n        /* \"contracts/agentpay.sol\":1700:1734  block.timestamp >= sub.nextPayment */\n      lt\n      iszero\n        /* \"contracts/agentpay.sol\":1692:1754  require(block.timestamp >= sub.nextPayment, \"Payment not due\") */\n      tag_48\n      jumpi\n      mload(0x40)\n      0x08c379a000000000000000000000000000000000000000000000000000000000\n      dup2\n      mstore\n      0x04\n      add\n      tag_49\n      swap1\n      tag_50\n      jump\t// in\n    tag_49:\n      mload(0x40)\n      dup1\n      swap2\n      sub\n      swap1\n      revert\n    tag_48:\n        /* \"contracts/agentpay.sol\":1801:1804  sub */\n      dup1\n        /* \"contracts/agentpay.sol\":1801:1813  sub.interval */\n      0x02\n      add\n      sload\n        /* \"contracts/agentpay.sol\":1783:1786  sub */\n      dup2\n        /* \"contracts/agentpay.sol\":1783:1798  sub.nextPayment */\n      0x03\n      add\n      sload\n        /* \"contracts/agentpay.sol\":1783:1813  sub.nextPayment + sub.interval */\n      tag_51\n      swap2\n      swap1\n      tag_41\n      jump\t// in\n    tag_51:\n        /* \"contracts/agentpay.sol\":1765:1768  sub */\n      dup2\n        /* \"contracts/agentpay.sol\":1765:1780  sub.nextPayment */\n      0x03\n      add\n        /* \"contracts/agentpay.sol\":1765:1813  sub.nextPayment = sub.nextPayment + sub.interval */\n      dup2\n      swap1\n      sstore\n      pop\n        /* \"contracts/agentpay.sol\":1823:1828  token */\n      0x01\n      0x00\n      swap1\n      sload\n      swap1\n      0x0100\n      exp\n      swap1\n      div\n      0xffffffffffffffffffffffffffffffffffffffff\n      and\n        /* \"contracts/agentpay.sol\":1823:1841  token.transferFrom */\n      0xffffffffffffffffffffffffffffffffffffffff\n      and\n      0x23b872dd\n        /* \"contracts/agentpay.sol\":1842:1845  sub */\n      dup3\n        /* \"contracts/agentpay.sol\":1842:1856  sub.subscriber */\n      0x00\n      add\n      0x00\n      swap1\n      sload\n      swap1\n      0x0100\n      exp\n      swap1\n      div\n      0xffffffffffffffffffffffffffffffffffffffff\n      and\n        /* \"contracts/agentpay.sol\":1858:1861  sub */\n      dup4\n        /* \"contracts/agentpay.sol\":1858:1871  sub.recipient */\n      0x04\n      add\n      0x00\n      swap1\n      sload\n      swap1\n      0x0100\n      exp\n      swap1\n      div\n      0xffffffffffffffffffffffffffffffffffffffff\n      and\n        /* \"contracts/agentpay.sol\":1873:1876  sub */\n      dup5\n        /* \"contracts/agentpay.sol\":1873:1883  sub.amount */\n      0x01\n      add\n      sload\n        /* \"contracts/agentpay.sol\":1823:1884  token.transferFrom(sub.subscriber, sub.recipient, sub.amount) */\n      mload(0x40)\n      dup5\n      0xffffffff\n      and\n      0xe0\n      shl\n      dup2\n      mstore\n      0x04\n      add\n      tag_52\n      swap4\n      swap3\n      swap2\n      swap1\n      tag_53\n      jump\t// in\n    tag_52:\n      0x20\n      mload(0x40)\n      dup1\n      dup4\n      sub\n      dup2\n      0x00\n      dup8\n      gas\n      call\n      iszero\n      dup1\n      iszero\n      tag_55\n      jumpi\n      returndatasize\n      0x00\n      dup1\n      returndatacopy\n      revert(0x00, returndatasize)\n    tag_55:\n      pop\n      pop\n      pop\n      pop\n      mload(0x40)\n      returndatasize\n      not(0x1f)\n      0x1f\n      dup3\n      add\n      and\n      dup3\n      add\n      dup1\n      0x40\n      mstore\n      pop\n      dup2\n      add\n      swap1\n      tag_56\n      swap2\n      swap1\n      tag_57\n      jump\t// in\n    tag_56:\n      pop\n        /* \"contracts/agentpay.sol\":1917:1920  sub */\n      dup1\n        /* \"contracts/agentpay.sol\":1917:1931  sub.subscriber */\n      0x00\n      add\n      0x00\n      swap1\n      sload\n      swap1\n      0x0100\n      exp\n      swap1\n      div\n      0xffffffffffffffffffffffffffffffffffffffff\n      and\n        /* \"contracts/agentpay.sol\":1900:1959  PaymentProcessed(sub.subscriber, sub.recipient, sub.amount) */\n      0xffffffffffffffffffffffffffffffffffffffff\n      and\n      0x0538ab32a957d2b55d0ec70a4029e73fdf19f500832839b1d7bafcfbca2a5630\n        /* \"contracts/agentpay.sol\":1933:1936  sub */\n      dup3\n        /* \"contracts/agentpay.sol\":1933:1946  sub.recipient */\n      0x04\n      add\n      0x00\n      swap1\n      sload\n      swap1\n      0x0100\n      exp\n      swap1\n      div\n      0xffffffffffffffffffffffffffffffffffffffff\n      and\n        /* \"contracts/agentpay.sol\":1948:1951  sub */\n      dup4\n        /* \"contracts/agentpay.sol\":1948:1958  sub.amount */\n      0x01\n      add\n      sload\n        /* \"contracts/agentpay.sol\":1900:1959  PaymentProcessed(sub.subscriber, sub.recipient, sub.amount) */\n      mload(0x40)\n      tag_58\n      swap3\n      swap2\n      swap1\n      tag_59\n      jump\t// in\n    tag_58:\n      mload(0x40)\n      dup1\n      swap2\n      sub\n      swap1\n      log2\n        /* \"contracts/agentpay.sol\":1563:1966  {... */\n      pop\n        /* \"contracts/agentpay.sol\":1509:1966  function processPayment(address _subscriber) external {... */\n      pop\n      jump\t// out\n        /* \"contracts/agentpay.sol\":524:577  mapping(address => Subscription) public subscriptions */\n    tag_25:\n      mstore(0x20, 0x02)\n      dup1\n      0x00\n      mstore\n      keccak256(0x00, 0x40)\n      0x00\n      swap2\n      pop\n      swap1\n      pop\n      dup1\n      0x00\n      add\n      0x00\n      swap1\n      sload\n      swap1\n      0x0100\n      exp\n      swap1\n      div\n      0xffffffffffffffffffffffffffffffffffffffff\n      and\n      swap1\n      dup1\n      0x01\n      add\n      sload\n      swap1\n      dup1\n      0x02\n      add\n      sload\n      swap1\n      dup1\n      0x03\n      add\n      sload\n      swap1\n      dup1\n      0x04\n      add\n      0x00\n      swap1\n      sload\n      swap1\n      0x0100\n      exp\n      swap1\n      div\n      0xffffffffffffffffffffffffffffffffffffffff\n      and\n      swap1\n      dup1\n      0x04\n      add\n      0x14\n      swap1\n      sload\n      swap1\n      0x0100\n      exp\n      swap1\n      div\n      0xff\n      and\n      swap1\n      pop\n      dup7\n      jump\t// out\n        /* \"contracts/agentpay.sol\":310:329  IERC20 public token */\n    tag_29:\n      0x01\n      0x00\n      swap1\n      sload\n      swap1\n      0x0100\n      exp\n      swap1\n      div\n      0xffffffffffffffffffffffffffffffffffffffff\n      and\n      dup2\n      jump\t// out\n        /* \"#utility.yul\":88:205   */\n    tag_61:\n        /* \"#utility.yul\":197:198   */\n      0x00\n        /* \"#utility.yul\":194:195   */\n      dup1\n        /* \"#utility.yul\":187:199   */\n      revert\n        /* \"#utility.yul\":334:460   */\n    tag_63:\n        /* \"#utility.yul\":371:378   */\n      0x00\n        /* \"#utility.yul\":411:453   */\n      0xffffffffffffffffffffffffffffffffffffffff\n        /* \"#utility.yul\":404:409   */\n      dup3\n        /* \"#utility.yul\":400:454   */\n      and\n        /* \"#utility.yul\":389:454   */\n      swap1\n      pop\n        /* \"#utility.yul\":334:460   */\n      swap2\n      swap1\n      pop\n      jump\t// out\n        /* \"#utility.yul\":466:562   */\n    tag_64:\n        /* \"#utility.yul\":503:510   */\n      0x00\n        /* \"#utility.yul\":532:556   */\n      tag_97\n        /* \"#utility.yul\":550:555   */\n      dup3\n        /* \"#utility.yul\":532:556   */\n      tag_63\n      jump\t// in\n    tag_97:\n        /* \"#utility.yul\":521:556   */\n      swap1\n      pop\n        /* \"#utility.yul\":466:562   */\n      swap2\n      swap1\n      pop\n      jump\t// out\n        /* \"#utility.yul\":568:690   */\n    tag_65:\n        /* \"#utility.yul\":641:665   */\n      tag_99\n        /* \"#utility.yul\":659:664   */\n      dup2\n        /* \"#utility.yul\":641:665   */\n      tag_64\n      jump\t// in\n    tag_99:\n        /* \"#utility.yul\":634:639   */\n      dup2\n        /* \"#utility.yul\":631:666   */\n      eq\n        /* \"#utility.yul\":621:684   */\n      tag_100\n      jumpi\n        /* \"#utility.yul\":680:681   */\n      0x00\n        /* \"#utility.yul\":677:678   */\n      dup1\n        /* \"#utility.yul\":670:682   */\n      revert\n        /* \"#utility.yul\":621:684   */\n    tag_100:\n        /* \"#utility.yul\":568:690   */\n      pop\n      jump\t// out\n        /* \"#utility.yul\":696:835   */\n    tag_66:\n        /* \"#utility.yul\":742:747   */\n      0x00\n        /* \"#utility.yul\":780:786   */\n      dup2\n        /* \"#utility.yul\":767:787   */\n      calldataload\n        /* \"#utility.yul\":758:787   */\n      swap1\n      pop\n        /* \"#utility.yul\":796:829   */\n      tag_102\n        /* \"#utility.yul\":823:828   */\n      dup2\n        /* \"#utility.yul\":796:829   */\n      tag_65\n      jump\t// in\n    tag_102:\n        /* \"#utility.yul\":696:835   */\n      swap3\n      swap2\n      pop\n      pop\n      jump\t// out\n        /* \"#utility.yul\":841:918   */\n    tag_67:\n        /* \"#utility.yul\":878:885   */\n      0x00\n        /* \"#utility.yul\":907:912   */\n      dup2\n        /* \"#utility.yul\":896:912   */\n      swap1\n      pop\n        /* \"#utility.yul\":841:918   */\n      swap2\n      swap1\n      pop\n      jump\t// out\n        /* \"#utility.yul\":924:1046   */\n    tag_68:\n        /* \"#utility.yul\":997:1021   */\n      tag_105\n        /* \"#utility.yul\":1015:1020   */\n      dup2\n        /* \"#utility.yul\":997:1021   */\n      tag_67\n      jump\t// in\n    tag_105:\n        /* \"#utility.yul\":990:995   */\n      dup2\n        /* \"#utility.yul\":987:1022   */\n      eq\n        /* \"#utility.yul\":977:1040   */\n      tag_106\n      jumpi\n        /* \"#utility.yul\":1036:1037   */\n      0x00\n        /* \"#utility.yul\":1033:1034   */\n      dup1\n        /* \"#utility.yul\":1026:1038   */\n      revert\n        /* \"#utility.yul\":977:1040   */\n    tag_106:\n        /* \"#utility.yul\":924:1046   */\n      pop\n      jump\t// out\n        /* \"#utility.yul\":1052:1191   */\n    tag_69:\n        /* \"#utility.yul\":1098:1103   */\n      0x00\n        /* \"#utility.yul\":1136:1142   */\n      dup2\n        /* \"#utility.yul\":1123:1143   */\n      calldataload\n        /* \"#utility.yul\":1114:1143   */\n      swap1\n      pop\n        /* \"#utility.yul\":1152:1185   */\n      tag_108\n        /* \"#utility.yul\":1179:1184   */\n      dup2\n        /* \"#utility.yul\":1152:1185   */\n      tag_68\n      jump\t// in\n    tag_108:\n        /* \"#utility.yul\":1052:1191   */\n      swap3\n      swap2\n      pop\n      pop\n      jump\t// out\n        /* \"#utility.yul\":1197:1816   */\n    tag_13:\n        /* \"#utility.yul\":1274:1280   */\n      0x00\n        /* \"#utility.yul\":1282:1288   */\n      dup1\n        /* \"#utility.yul\":1290:1296   */\n      0x00\n        /* \"#utility.yul\":1339:1341   */\n      0x60\n        /* \"#utility.yul\":1327:1336   */\n      dup5\n        /* \"#utility.yul\":1318:1325   */\n      dup7\n        /* \"#utility.yul\":1314:1337   */\n      sub\n        /* \"#utility.yul\":1310:1342   */\n      slt\n        /* \"#utility.yul\":1307:1426   */\n      iszero\n      tag_110\n      jumpi\n        /* \"#utility.yul\":1345:1424   */\n      tag_111\n      tag_61\n      jump\t// in\n    tag_111:\n        /* \"#utility.yul\":1307:1426   */\n    tag_110:\n        /* \"#utility.yul\":1465:1466   */\n      0x00\n        /* \"#utility.yul\":1490:1543   */\n      tag_112\n        /* \"#utility.yul\":1535:1542   */\n      dup7\n        /* \"#utility.yul\":1526:1532   */\n      dup3\n        /* \"#utility.yul\":1515:1524   */\n      dup8\n        /* \"#utility.yul\":1511:1533   */\n      add\n        /* \"#utility.yul\":1490:1543   */\n      tag_66\n      jump\t// in\n    tag_112:\n        /* \"#utility.yul\":1480:1543   */\n      swap4\n      pop\n        /* \"#utility.yul\":1436:1553   */\n      pop\n        /* \"#utility.yul\":1592:1594   */\n      0x20\n        /* \"#utility.yul\":1618:1671   */\n      tag_113\n        /* \"#utility.yul\":1663:1670   */\n      dup7\n        /* \"#utility.yul\":1654:1660   */\n      dup3\n        /* \"#utility.yul\":1643:1652   */\n      dup8\n        /* \"#utility.yul\":1639:1661   */\n      add\n        /* \"#utility.yul\":1618:1671   */\n      tag_69\n      jump\t// in\n    tag_113:\n        /* \"#utility.yul\":1608:1671   */\n      swap3\n      pop\n        /* \"#utility.yul\":1563:1681   */\n      pop\n        /* \"#utility.yul\":1720:1722   */\n      0x40\n        /* \"#utility.yul\":1746:1799   */\n      tag_114\n        /* \"#utility.yul\":1791:1798   */\n      dup7\n        /* \"#utility.yul\":1782:1788   */\n      dup3\n        /* \"#utility.yul\":1771:1780   */\n      dup8\n        /* \"#utility.yul\":1767:1789   */\n      add\n        /* \"#utility.yul\":1746:1799   */\n      tag_69\n      jump\t// in\n    tag_114:\n        /* \"#utility.yul\":1736:1799   */\n      swap2\n      pop\n        /* \"#utility.yul\":1691:1809   */\n      pop\n        /* \"#utility.yul\":1197:1816   */\n      swap3\n      pop\n      swap3\n      pop\n      swap3\n      jump\t// out\n        /* \"#utility.yul\":1822:1940   */\n    tag_70:\n        /* \"#utility.yul\":1909:1933   */\n      tag_116\n        /* \"#utility.yul\":1927:1932   */\n      dup2\n        /* \"#utility.yul\":1909:1933   */\n      tag_64\n      jump\t// in\n    tag_116:\n        /* \"#utility.yul\":1904:1907   */\n      dup3\n        /* \"#utility.yul\":1897:1934   */\n      mstore\n        /* \"#utility.yul\":1822:1940   */\n      pop\n      pop\n      jump\t// out\n        /* \"#utility.yul\":1946:2168   */\n    tag_18:\n        /* \"#utility.yul\":2039:2043   */\n      0x00\n        /* \"#utility.yul\":2077:2079   */\n      0x20\n        /* \"#utility.yul\":2066:2075   */\n      dup3\n        /* \"#utility.yul\":2062:2080   */\n      add\n        /* \"#utility.yul\":2054:2080   */\n      swap1\n      pop\n        /* \"#utility.yul\":2090:2161   */\n      tag_118\n        /* \"#utility.yul\":2158:2159   */\n      0x00\n        /* \"#utility.yul\":2147:2156   */\n      dup4\n        /* \"#utility.yul\":2143:2160   */\n      add\n        /* \"#utility.yul\":2134:2140   */\n      dup5\n        /* \"#utility.yul\":2090:2161   */\n      tag_70\n      jump\t// in\n    tag_118:\n        /* \"#utility.yul\":1946:2168   */\n      swap3\n      swap2\n      pop\n      pop\n      jump\t// out\n        /* \"#utility.yul\":2174:2503   */\n    tag_21:\n        /* \"#utility.yul\":2233:2239   */\n      0x00\n        /* \"#utility.yul\":2282:2284   */\n      0x20\n        /* \"#utility.yul\":2270:2279   */\n      dup3\n        /* \"#utility.yul\":2261:2268   */\n      dup5\n        /* \"#utility.yul\":2257:2280   */\n      sub\n        /* \"#utility.yul\":2253:2285   */\n      slt\n        /* \"#utility.yul\":2250:2369   */\n      iszero\n      tag_120\n      jumpi\n        /* \"#utility.yul\":2288:2367   */\n      tag_121\n      tag_61\n      jump\t// in\n    tag_121:\n        /* \"#utility.yul\":2250:2369   */\n    tag_120:\n        /* \"#utility.yul\":2408:2409   */\n      0x00\n        /* \"#utility.yul\":2433:2486   */\n      tag_122\n        /* \"#utility.yul\":2478:2485   */\n      dup5\n        /* \"#utility.yul\":2469:2475   */\n      dup3\n        /* \"#utility.yul\":2458:2467   */\n      dup6\n        /* \"#utility.yul\":2454:2476   */\n      add\n        /* \"#utility.yul\":2433:2486   */\n      tag_66\n      jump\t// in\n    tag_122:\n        /* \"#utility.yul\":2423:2486   */\n      swap2\n      pop\n        /* \"#utility.yul\":2379:2496   */\n      pop\n        /* \"#utility.yul\":2174:2503   */\n      swap3\n      swap2\n      pop\n      pop\n      jump\t// out\n        /* \"#utility.yul\":2509:2627   */\n    tag_71:\n        /* \"#utility.yul\":2596:2620   */\n      tag_124\n        /* \"#utility.yul\":2614:2619   */\n      dup2\n        /* \"#utility.yul\":2596:2620   */\n      tag_67\n      jump\t// in\n    tag_124:\n        /* \"#utility.yul\":2591:2594   */\n      dup3\n        /* \"#utility.yul\":2584:2621   */\n      mstore\n        /* \"#utility.yul\":2509:2627   */\n      pop\n      pop\n      jump\t// out\n        /* \"#utility.yul\":2633:2723   */\n    tag_72:\n        /* \"#utility.yul\":2667:2674   */\n      0x00\n        /* \"#utility.yul\":2710:2715   */\n      dup2\n        /* \"#utility.yul\":2703:2716   */\n      iszero\n        /* \"#utility.yul\":2696:2717   */\n      iszero\n        /* \"#utility.yul\":2685:2717   */\n      swap1\n      pop\n        /* \"#utility.yul\":2633:2723   */\n      swap2\n      swap1\n      pop\n      jump\t// out\n        /* \"#utility.yul\":2729:2838   */\n    tag_73:\n        /* \"#utility.yul\":2810:2831   */\n      tag_127\n        /* \"#utility.yul\":2825:2830   */\n      dup2\n        /* \"#utility.yul\":2810:2831   */\n      tag_72\n      jump\t// in\n    tag_127:\n        /* \"#utility.yul\":2805:2808   */\n      dup3\n        /* \"#utility.yul\":2798:2832   */\n      mstore\n        /* \"#utility.yul\":2729:2838   */\n      pop\n      pop\n      jump\t// out\n        /* \"#utility.yul\":2844:3607   */\n    tag_27:\n        /* \"#utility.yul\":3071:3075   */\n      0x00\n        /* \"#utility.yul\":3109:3112   */\n      0xc0\n        /* \"#utility.yul\":3098:3107   */\n      dup3\n        /* \"#utility.yul\":3094:3113   */\n      add\n        /* \"#utility.yul\":3086:3113   */\n      swap1\n      pop\n        /* \"#utility.yul\":3123:3194   */\n      tag_129\n        /* \"#utility.yul\":3191:3192   */\n      0x00\n        /* \"#utility.yul\":3180:3189   */\n      dup4\n        /* \"#utility.yul\":3176:3193   */\n      add\n        /* \"#utility.yul\":3167:3173   */\n      dup10\n        /* \"#utility.yul\":3123:3194   */\n      tag_70\n      jump\t// in\n    tag_129:\n        /* \"#utility.yul\":3204:3276   */\n      tag_130\n        /* \"#utility.yul\":3272:3274   */\n      0x20\n        /* \"#utility.yul\":3261:3270   */\n      dup4\n        /* \"#utility.yul\":3257:3275   */\n      add\n        /* \"#utility.yul\":3248:3254   */\n      dup9\n        /* \"#utility.yul\":3204:3276   */\n      tag_71\n      jump\t// in\n    tag_130:\n        /* \"#utility.yul\":3286:3358   */\n      tag_131\n        /* \"#utility.yul\":3354:3356   */\n      0x40\n        /* \"#utility.yul\":3343:3352   */\n      dup4\n        /* \"#utility.yul\":3339:3357   */\n      add\n        /* \"#utility.yul\":3330:3336   */\n      dup8\n        /* \"#utility.yul\":3286:3358   */\n      tag_71\n      jump\t// in\n    tag_131:\n        /* \"#utility.yul\":3368:3440   */\n      tag_132\n        /* \"#utility.yul\":3436:3438   */\n      0x60\n        /* \"#utility.yul\":3425:3434   */\n      dup4\n        /* \"#utility.yul\":3421:3439   */\n      add\n        /* \"#utility.yul\":3412:3418   */\n      dup7\n        /* \"#utility.yul\":3368:3440   */\n      tag_71\n      jump\t// in\n    tag_132:\n        /* \"#utility.yul\":3450:3523   */\n      tag_133\n        /* \"#utility.yul\":3518:3521   */\n      0x80\n        /* \"#utility.yul\":3507:3516   */\n      dup4\n        /* \"#utility.yul\":3503:3522   */\n      add\n        /* \"#utility.yul\":3494:3500   */\n      dup6\n        /* \"#utility.yul\":3450:3523   */\n      tag_70\n      jump\t// in\n    tag_133:\n        /* \"#utility.yul\":3533:3600   */\n      tag_134\n        /* \"#utility.yul\":3595:3598   */\n      0xa0\n        /* \"#utility.yul\":3584:3593   */\n      dup4\n        /* \"#utility.yul\":3580:3599   */\n      add\n        /* \"#utility.yul\":3571:3577   */\n      dup5\n        /* \"#utility.yul\":3533:3600   */\n      tag_73\n      jump\t// in\n    tag_134:\n        /* \"#utility.yul\":2844:3607   */\n      swap8\n      swap7\n      pop\n      pop\n      pop\n      pop\n      pop\n      pop\n      pop\n      jump\t// out\n        /* \"#utility.yul\":3613:3673   */\n    tag_74:\n        /* \"#utility.yul\":3641:3644   */\n      0x00\n        /* \"#utility.yul\":3662:3667   */\n      dup2\n        /* \"#utility.yul\":3655:3667   */\n      swap1\n      pop\n        /* \"#utility.yul\":3613:3673   */\n      swap2\n      swap1\n      pop\n      jump\t// out\n        /* \"#utility.yul\":3679:3821   */\n    tag_75:\n        /* \"#utility.yul\":3729:3738   */\n      0x00\n        /* \"#utility.yul\":3762:3815   */\n      tag_137\n        /* \"#utility.yul\":3780:3814   */\n      tag_138\n        /* \"#utility.yul\":3789:3813   */\n      tag_139\n        /* \"#utility.yul\":3807:3812   */\n      dup5\n        /* \"#utility.yul\":3789:3813   */\n      tag_63\n      jump\t// in\n    tag_139:\n        /* \"#utility.yul\":3780:3814   */\n      tag_74\n      jump\t// in\n    tag_138:\n        /* \"#utility.yul\":3762:3815   */\n      tag_63\n      jump\t// in\n    tag_137:\n        /* \"#utility.yul\":3749:3815   */\n      swap1\n      pop\n        /* \"#utility.yul\":3679:3821   */\n      swap2\n      swap1\n      pop\n      jump\t// out\n        /* \"#utility.yul\":3827:3953   */\n    tag_76:\n        /* \"#utility.yul\":3877:3886   */\n      0x00\n        /* \"#utility.yul\":3910:3947   */\n      tag_141\n        /* \"#utility.yul\":3941:3946   */\n      dup3\n        /* \"#utility.yul\":3910:3947   */\n      tag_75\n      jump\t// in\n    tag_141:\n        /* \"#utility.yul\":3897:3947   */\n      swap1\n      pop\n        /* \"#utility.yul\":3827:3953   */\n      swap2\n      swap1\n      pop\n      jump\t// out\n        /* \"#utility.yul\":3959:4098   */\n    tag_77:\n        /* \"#utility.yul\":4022:4031   */\n      0x00\n        /* \"#utility.yul\":4055:4092   */\n      tag_143\n        /* \"#utility.yul\":4086:4091   */\n      dup3\n        /* \"#utility.yul\":4055:4092   */\n      tag_76\n      jump\t// in\n    tag_143:\n        /* \"#utility.yul\":4042:4092   */\n      swap1\n      pop\n        /* \"#utility.yul\":3959:4098   */\n      swap2\n      swap1\n      pop\n      jump\t// out\n        /* \"#utility.yul\":4104:4261   */\n    tag_78:\n        /* \"#utility.yul\":4204:4254   */\n      tag_145\n        /* \"#utility.yul\":4248:4253   */\n      dup2\n        /* \"#utility.yul\":4204:4254   */\n      tag_77\n      jump\t// in\n    tag_145:\n        /* \"#utility.yul\":4199:4202   */\n      dup3\n        /* \"#utility.yul\":4192:4255   */\n      mstore\n        /* \"#utility.yul\":4104:4261   */\n      pop\n      pop\n      jump\t// out\n        /* \"#utility.yul\":4267:4515   */\n    tag_31:\n        /* \"#utility.yul\":4373:4377   */\n      0x00\n        /* \"#utility.yul\":4411:4413   */\n      0x20\n        /* \"#utility.yul\":4400:4409   */\n      dup3\n        /* \"#utility.yul\":4396:4414   */\n      add\n        /* \"#utility.yul\":4388:4414   */\n      swap1\n      pop\n        /* \"#utility.yul\":4424:4508   */\n      tag_147\n        /* \"#utility.yul\":4505:4506   */\n      0x00\n        /* \"#utility.yul\":4494:4503   */\n      dup4\n        /* \"#utility.yul\":4490:4507   */\n      add\n        /* \"#utility.yul\":4481:4487   */\n      dup5\n        /* \"#utility.yul\":4424:4508   */\n      tag_78\n      jump\t// in\n    tag_147:\n        /* \"#utility.yul\":4267:4515   */\n      swap3\n      swap2\n      pop\n      pop\n      jump\t// out\n        /* \"#utility.yul\":4521:4690   */\n    tag_79:\n        /* \"#utility.yul\":4605:4616   */\n      0x00\n        /* \"#utility.yul\":4639:4645   */\n      dup3\n        /* \"#utility.yul\":4634:4637   */\n      dup3\n        /* \"#utility.yul\":4627:4646   */\n      mstore\n        /* \"#utility.yul\":4679:4683   */\n      0x20\n        /* \"#utility.yul\":4674:4677   */\n      dup3\n        /* \"#utility.yul\":4670:4684   */\n      add\n        /* \"#utility.yul\":4655:4684   */\n      swap1\n      pop\n        /* \"#utility.yul\":4521:4690   */\n      swap3\n      swap2\n      pop\n      pop\n      jump\t// out\n        /* \"#utility.yul\":4696:4868   */\n    tag_80:\n        /* \"#utility.yul\":4836:4860   */\n      0x4e6f2061637469766520737562736372697074696f6e00000000000000000000\n        /* \"#utility.yul\":4832:4833   */\n      0x00\n        /* \"#utility.yul\":4824:4830   */\n      dup3\n        /* \"#utility.yul\":4820:4834   */\n      add\n        /* \"#utility.yul\":4813:4861   */\n      mstore\n        /* \"#utility.yul\":4696:4868   */\n      pop\n      jump\t// out\n        /* \"#utility.yul\":4874:5240   */\n    tag_81:\n        /* \"#utility.yul\":5016:5019   */\n      0x00\n        /* \"#utility.yul\":5037:5104   */\n      tag_151\n        /* \"#utility.yul\":5101:5103   */\n      0x16\n        /* \"#utility.yul\":5096:5099   */\n      dup4\n        /* \"#utility.yul\":5037:5104   */\n      tag_79\n      jump\t// in\n    tag_151:\n        /* \"#utility.yul\":5030:5104   */\n      swap2\n      pop\n        /* \"#utility.yul\":5113:5206   */\n      tag_152\n        /* \"#utility.yul\":5202:5205   */\n      dup3\n        /* \"#utility.yul\":5113:5206   */\n      tag_80\n      jump\t// in\n    tag_152:\n        /* \"#utility.yul\":5231:5233   */\n      0x20\n        /* \"#utility.yul\":5226:5229   */\n      dup3\n        /* \"#utility.yul\":5222:5234   */\n      add\n        /* \"#utility.yul\":5215:5234   */\n      swap1\n      pop\n        /* \"#utility.yul\":4874:5240   */\n      swap2\n      swap1\n      pop\n      jump\t// out\n        /* \"#utility.yul\":5246:5665   */\n    tag_35:\n        /* \"#utility.yul\":5412:5416   */\n      0x00\n        /* \"#utility.yul\":5450:5452   */\n      0x20\n        /* \"#utility.yul\":5439:5448   */\n      dup3\n        /* \"#utility.yul\":5435:5453   */\n      add\n        /* \"#utility.yul\":5427:5453   */\n      swap1\n      pop\n        /* \"#utility.yul\":5499:5508   */\n      dup2\n        /* \"#utility.yul\":5493:5497   */\n      dup2\n        /* \"#utility.yul\":5489:5509   */\n      sub\n        /* \"#utility.yul\":5485:5486   */\n      0x00\n        /* \"#utility.yul\":5474:5483   */\n      dup4\n        /* \"#utility.yul\":5470:5487   */\n      add\n        /* \"#utility.yul\":5463:5510   */\n      mstore\n        /* \"#utility.yul\":5527:5658   */\n      tag_154\n        /* \"#utility.yul\":5653:5657   */\n      dup2\n        /* \"#utility.yul\":5527:5658   */\n      tag_81\n      jump\t// in\n    tag_154:\n        /* \"#utility.yul\":5519:5658   */\n      swap1\n      pop\n        /* \"#utility.yul\":5246:5665   */\n      swap2\n      swap1\n      pop\n      jump\t// out\n        /* \"#utility.yul\":5671:5848   */\n    tag_82:\n        /* \"#utility.yul\":5811:5840   */\n      0x537562736372697074696f6e20616c7265616479206578697374730000000000\n        /* \"#utility.yul\":5807:5808   */\n      0x00\n        /* \"#utility.yul\":5799:5805   */\n      dup3\n        /* \"#utility.yul\":5795:5809   */\n      add\n        /* \"#utility.yul\":5788:5841   */\n      mstore\n        /* \"#utility.yul\":5671:5848   */\n      pop\n      jump\t// out\n        /* \"#utility.yul\":5854:6220   */\n    tag_83:\n        /* \"#utility.yul\":5996:5999   */\n      0x00\n        /* \"#utility.yul\":6017:6084   */\n      tag_157\n        /* \"#utility.yul\":6081:6083   */\n      0x1b\n        /* \"#utility.yul\":6076:6079   */\n      dup4\n        /* \"#utility.yul\":6017:6084   */\n      tag_79\n      jump\t// in\n    tag_157:\n        /* \"#utility.yul\":6010:6084   */\n      swap2\n      pop\n        /* \"#utility.yul\":6093:6186   */\n      tag_158\n        /* \"#utility.yul\":6182:6185   */\n      dup3\n        /* \"#utility.yul\":6093:6186   */\n      tag_82\n      jump\t// in\n    tag_158:\n        /* \"#utility.yul\":6211:6213   */\n      0x20\n        /* \"#utility.yul\":6206:6209   */\n      dup3\n        /* \"#utility.yul\":6202:6214   */\n      add\n        /* \"#utility.yul\":6195:6214   */\n      swap1\n      pop\n        /* \"#utility.yul\":5854:6220   */\n      swap2\n      swap1\n      pop\n      jump\t// out\n        /* \"#utility.yul\":6226:6645   */\n    tag_39:\n        /* \"#utility.yul\":6392:6396   */\n      0x00\n        /* \"#utility.yul\":6430:6432   */\n      0x20\n        /* \"#utility.yul\":6419:6428   */\n      dup3\n        /* \"#utility.yul\":6415:6433   */\n      add\n        /* \"#utility.yul\":6407:6433   */\n      swap1\n      pop\n        /* \"#utility.yul\":6479:6488   */\n      dup2\n        /* \"#utility.yul\":6473:6477   */\n      dup2\n        /* \"#utility.yul\":6469:6489   */\n      sub\n        /* \"#utility.yul\":6465:6466   */\n      0x00\n        /* \"#utility.yul\":6454:6463   */\n      dup4\n        /* \"#utility.yul\":6450:6467   */\n      add\n        /* \"#utility.yul\":6443:6490   */\n      mstore\n        /* \"#utility.yul\":6507:6638   */\n      tag_160\n        /* \"#utility.yul\":6633:6637   */\n      dup2\n        /* \"#utility.yul\":6507:6638   */\n      tag_83\n      jump\t// in\n    tag_160:\n        /* \"#utility.yul\":6499:6638   */\n      swap1\n      pop\n        /* \"#utility.yul\":6226:6645   */\n      swap2\n      swap1\n      pop\n      jump\t// out\n        /* \"#utility.yul\":6651:6831   */\n    tag_84:\n        /* \"#utility.yul\":6699:6776   */\n      0x4e487b7100000000000000000000000000000000000000000000000000000000\n        /* \"#utility.yul\":6696:6697   */\n      0x00\n        /* \"#utility.yul\":6689:6777   */\n      mstore\n        /* \"#utility.yul\":6796:6800   */\n      0x11\n        /* \"#utility.yul\":6793:6794   */\n      0x04\n        /* \"#utility.yul\":6786:6801   */\n      mstore\n        /* \"#utility.yul\":6820:6824   */\n      0x24\n        /* \"#utility.yul\":6817:6818   */\n      0x00\n        /* \"#utility.yul\":6810:6825   */\n      revert\n        /* \"#utility.yul\":6837:7028   */\n    tag_41:\n        /* \"#utility.yul\":6877:6880   */\n      0x00\n        /* \"#utility.yul\":6896:6916   */\n      tag_163\n        /* \"#utility.yul\":6914:6915   */\n      dup3\n        /* \"#utility.yul\":6896:6916   */\n      tag_67\n      jump\t// in\n    tag_163:\n        /* \"#utility.yul\":6891:6916   */\n      swap2\n      pop\n        /* \"#utility.yul\":6930:6950   */\n      tag_164\n        /* \"#utility.yul\":6948:6949   */\n      dup4\n        /* \"#utility.yul\":6930:6950   */\n      tag_67\n      jump\t// in\n    tag_164:\n        /* \"#utility.yul\":6925:6950   */\n      swap3\n      pop\n        /* \"#utility.yul\":6973:6974   */\n      dup3\n        /* \"#utility.yul\":6970:6971   */\n      dup3\n        /* \"#utility.yul\":6966:6975   */\n      add\n        /* \"#utility.yul\":6959:6975   */\n      swap1\n      pop\n        /* \"#utility.yul\":6994:6997   */\n      dup1\n        /* \"#utility.yul\":6991:6992   */\n      dup3\n        /* \"#utility.yul\":6988:6998   */\n      gt\n        /* \"#utility.yul\":6985:7021   */\n      iszero\n      tag_165\n      jumpi\n        /* \"#utility.yul\":7001:7019   */\n      tag_166\n      tag_84\n      jump\t// in\n    tag_166:\n        /* \"#utility.yul\":6985:7021   */\n    tag_165:\n        /* \"#utility.yul\":6837:7028   */\n      swap3\n      swap2\n      pop\n      pop\n      jump\t// out\n        /* \"#utility.yul\":7034:7476   */\n    tag_43:\n        /* \"#utility.yul\":7183:7187   */\n      0x00\n        /* \"#utility.yul\":7221:7223   */\n      0x60\n        /* \"#utility.yul\":7210:7219   */\n      dup3\n        /* \"#utility.yul\":7206:7224   */\n      add\n        /* \"#utility.yul\":7198:7224   */\n      swap1\n      pop\n        /* \"#utility.yul\":7234:7305   */\n      tag_168\n        /* \"#utility.yul\":7302:7303   */\n      0x00\n        /* \"#utility.yul\":7291:7300   */\n      dup4\n        /* \"#utility.yul\":7287:7304   */\n      add\n        /* \"#utility.yul\":7278:7284   */\n      dup7\n        /* \"#utility.yul\":7234:7305   */\n      tag_70\n      jump\t// in\n    tag_168:\n        /* \"#utility.yul\":7315:7387   */\n      tag_169\n        /* \"#utility.yul\":7383:7385   */\n      0x20\n        /* \"#utility.yul\":7372:7381   */\n      dup4\n        /* \"#utility.yul\":7368:7386   */\n      add\n        /* \"#utility.yul\":7359:7365   */\n      dup6\n        /* \"#utility.yul\":7315:7387   */\n      tag_71\n      jump\t// in\n    tag_169:\n        /* \"#utility.yul\":7397:7469   */\n      tag_170\n        /* \"#utility.yul\":7465:7467   */\n      0x40\n        /* \"#utility.yul\":7454:7463   */\n      dup4\n        /* \"#utility.yul\":7450:7468   */\n      add\n        /* \"#utility.yul\":7441:7447   */\n      dup5\n        /* \"#utility.yul\":7397:7469   */\n      tag_71\n      jump\t// in\n    tag_170:\n        /* \"#utility.yul\":7034:7476   */\n      swap5\n      swap4\n      pop\n      pop\n      pop\n      pop\n      jump\t// out\n        /* \"#utility.yul\":7482:7655   */\n    tag_85:\n        /* \"#utility.yul\":7622:7647   */\n      0x537562736372697074696f6e206e6f7420616374697665000000000000000000\n        /* \"#utility.yul\":7618:7619   */\n      0x00\n        /* \"#utility.yul\":7610:7616   */\n      dup3\n        /* \"#utility.yul\":7606:7620   */\n      add\n        /* \"#utility.yul\":7599:7648   */\n      mstore\n        /* \"#utility.yul\":7482:7655   */\n      pop\n      jump\t// out\n        /* \"#utility.yul\":7661:8027   */\n    tag_86:\n        /* \"#utility.yul\":7803:7806   */\n      0x00\n        /* \"#utility.yul\":7824:7891   */\n      tag_173\n        /* \"#utility.yul\":7888:7890   */\n      0x17\n        /* \"#utility.yul\":7883:7886   */\n      dup4\n        /* \"#utility.yul\":7824:7891   */\n      tag_79\n      jump\t// in\n    tag_173:\n        /* \"#utility.yul\":7817:7891   */\n      swap2\n      pop\n        /* \"#utility.yul\":7900:7993   */\n      tag_174\n        /* \"#utility.yul\":7989:7992   */\n      dup3\n        /* \"#utility.yul\":7900:7993   */\n      tag_85\n      jump\t// in\n    tag_174:\n        /* \"#utility.yul\":8018:8020   */\n      0x20\n        /* \"#utility.yul\":8013:8016   */\n      dup3\n        /* \"#utility.yul\":8009:8021   */\n      add\n        /* \"#utility.yul\":8002:8021   */\n      swap1\n      pop\n        /* \"#utility.yul\":7661:8027   */\n      swap2\n      swap1\n      pop\n      jump\t// out\n        /* \"#utility.yul\":8033:8452   */\n    tag_47:\n        /* \"#utility.yul\":8199:8203   */\n      0x00\n        /* \"#utility.yul\":8237:8239   */\n      0x20\n        /* \"#utility.yul\":8226:8235   */\n      dup3\n        /* \"#utility.yul\":8222:8240   */\n      add\n        /* \"#utility.yul\":8214:8240   */\n      swap1\n      pop\n        /* \"#utility.yul\":8286:8295   */\n      dup2\n        /* \"#utility.yul\":8280:8284   */\n      dup2\n        /* \"#utility.yul\":8276:8296   */\n      sub\n        /* \"#utility.yul\":8272:8273   */\n      0x00\n        /* \"#utility.yul\":8261:8270   */\n      dup4\n        /* \"#utility.yul\":8257:8274   */\n      add\n        /* \"#utility.yul\":8250:8297   */\n      mstore\n        /* \"#utility.yul\":8314:8445   */\n      tag_176\n        /* \"#utility.yul\":8440:8444   */\n      dup2\n        /* \"#utility.yul\":8314:8445   */\n      tag_86\n      jump\t// in\n    tag_176:\n        /* \"#utility.yul\":8306:8445   */\n      swap1\n      pop\n        /* \"#utility.yul\":8033:8452   */\n      swap2\n      swap1\n      pop\n      jump\t// out\n        /* \"#utility.yul\":8458:8623   */\n    tag_87:\n        /* \"#utility.yul\":8598:8615   */\n      0x5061796d656e74206e6f74206475650000000000000000000000000000000000\n        /* \"#utility.yul\":8594:8595   */\n      0x00\n        /* \"#utility.yul\":8586:8592   */\n      dup3\n        /* \"#utility.yul\":8582:8596   */\n      add\n        /* \"#utility.yul\":8575:8616   */\n      mstore\n        /* \"#utility.yul\":8458:8623   */\n      pop\n      jump\t// out\n        /* \"#utility.yul\":8629:8995   */\n    tag_88:\n        /* \"#utility.yul\":8771:8774   */\n      0x00\n        /* \"#utility.yul\":8792:8859   */\n      tag_179\n        /* \"#utility.yul\":8856:8858   */\n      0x0f\n        /* \"#utility.yul\":8851:8854   */\n      dup4\n        /* \"#utility.yul\":8792:8859   */\n      tag_79\n      jump\t// in\n    tag_179:\n        /* \"#utility.yul\":8785:8859   */\n      swap2\n      pop\n        /* \"#utility.yul\":8868:8961   */\n      tag_180\n        /* \"#utility.yul\":8957:8960   */\n      dup3\n        /* \"#utility.yul\":8868:8961   */\n      tag_87\n      jump\t// in\n    tag_180:\n        /* \"#utility.yul\":8986:8988   */\n      0x20\n        /* \"#utility.yul\":8981:8984   */\n      dup3\n        /* \"#utility.yul\":8977:8989   */\n      add\n        /* \"#utility.yul\":8970:8989   */\n      swap1\n      pop\n        /* \"#utility.yul\":8629:8995   */\n      swap2\n      swap1\n      pop\n      jump\t// out\n        /* \"#utility.yul\":9001:9420   */\n    tag_50:\n        /* \"#utility.yul\":9167:9171   */\n      0x00\n        /* \"#utility.yul\":9205:9207   */\n      0x20\n        /* \"#utility.yul\":9194:9203   */\n      dup3\n        /* \"#utility.yul\":9190:9208   */\n      add\n        /* \"#utility.yul\":9182:9208   */\n      swap1\n      pop\n        /* \"#utility.yul\":9254:9263   */\n      dup2\n        /* \"#utility.yul\":9248:9252   */\n      dup2\n        /* \"#utility.yul\":9244:9264   */\n      sub\n        /* \"#utility.yul\":9240:9241   */\n      0x00\n        /* \"#utility.yul\":9229:9238   */\n      dup4\n        /* \"#utility.yul\":9225:9242   */\n      add\n        /* \"#utility.yul\":9218:9265   */\n      mstore\n        /* \"#utility.yul\":9282:9413   */\n      tag_182\n        /* \"#utility.yul\":9408:9412   */\n      dup2\n        /* \"#utility.yul\":9282:9413   */\n      tag_88\n      jump\t// in\n    tag_182:\n        /* \"#utility.yul\":9274:9413   */\n      swap1\n      pop\n        /* \"#utility.yul\":9001:9420   */\n      swap2\n      swap1\n      pop\n      jump\t// out\n        /* \"#utility.yul\":9426:9868   */\n    tag_53:\n        /* \"#utility.yul\":9575:9579   */\n      0x00\n        /* \"#utility.yul\":9613:9615   */\n      0x60\n        /* \"#utility.yul\":9602:9611   */\n      dup3\n        /* \"#utility.yul\":9598:9616   */\n      add\n        /* \"#utility.yul\":9590:9616   */\n      swap1\n      pop\n        /* \"#utility.yul\":9626:9697   */\n      tag_184\n        /* \"#utility.yul\":9694:9695   */\n      0x00\n        /* \"#utility.yul\":9683:9692   */\n      dup4\n        /* \"#utility.yul\":9679:9696   */\n      add\n        /* \"#utility.yul\":9670:9676   */\n      dup7\n        /* \"#utility.yul\":9626:9697   */\n      tag_70\n      jump\t// in\n    tag_184:\n        /* \"#utility.yul\":9707:9779   */\n      tag_185\n        /* \"#utility.yul\":9775:9777   */\n      0x20\n        /* \"#utility.yul\":9764:9773   */\n      dup4\n        /* \"#utility.yul\":9760:9778   */\n      add\n        /* \"#utility.yul\":9751:9757   */\n      dup6\n        /* \"#utility.yul\":9707:9779   */\n      tag_70\n      jump\t// in\n    tag_185:\n        /* \"#utility.yul\":9789:9861   */\n      tag_186\n        /* \"#utility.yul\":9857:9859   */\n      0x40\n        /* \"#utility.yul\":9846:9855   */\n      dup4\n        /* \"#utility.yul\":9842:9860   */\n      add\n        /* \"#utility.yul\":9833:9839   */\n      dup5\n        /* \"#utility.yul\":9789:9861   */\n      tag_71\n      jump\t// in\n    tag_186:\n        /* \"#utility.yul\":9426:9868   */\n      swap5\n      swap4\n      pop\n      pop\n      pop\n      pop\n      jump\t// out\n        /* \"#utility.yul\":9874:9990   */\n    tag_89:\n        /* \"#utility.yul\":9944:9965   */\n      tag_188\n        /* \"#utility.yul\":9959:9964   */\n      dup2\n        /* \"#utility.yul\":9944:9965   */\n      tag_72\n      jump\t// in\n    tag_188:\n        /* \"#utility.yul\":9937:9942   */\n      dup2\n        /* \"#utility.yul\":9934:9966   */\n      eq\n        /* \"#utility.yul\":9924:9984   */\n      tag_189\n      jumpi\n        /* \"#utility.yul\":9980:9981   */\n      0x00\n        /* \"#utility.yul\":9977:9978   */\n      dup1\n        /* \"#utility.yul\":9970:9982   */\n      revert\n        /* \"#utility.yul\":9924:9984   */\n    tag_189:\n        /* \"#utility.yul\":9874:9990   */\n      pop\n      jump\t// out\n        /* \"#utility.yul\":9996:10133   */\n    tag_90:\n        /* \"#utility.yul\":10050:10055   */\n      0x00\n        /* \"#utility.yul\":10081:10087   */\n      dup2\n        /* \"#utility.yul\":10075:10088   */\n      mload\n        /* \"#utility.yul\":10066:10088   */\n      swap1\n      pop\n        /* \"#utility.yul\":10097:10127   */\n      tag_191\n        /* \"#utility.yul\":10121:10126   */\n      dup2\n        /* \"#utility.yul\":10097:10127   */\n      tag_89\n      jump\t// in\n    tag_191:\n        /* \"#utility.yul\":9996:10133   */\n      swap3\n      swap2\n      pop\n      pop\n      jump\t// out\n        /* \"#utility.yul\":10139:10484   */\n    tag_57:\n        /* \"#utility.yul\":10206:10212   */\n      0x00\n        /* \"#utility.yul\":10255:10257   */\n      0x20\n        /* \"#utility.yul\":10243:10252   */\n      dup3\n        /* \"#utility.yul\":10234:10241   */\n      dup5\n        /* \"#utility.yul\":10230:10253   */\n      sub\n        /* \"#utility.yul\":10226:10258   */\n      slt\n        /* \"#utility.yul\":10223:10342   */\n      iszero\n      tag_193\n      jumpi\n        /* \"#utility.yul\":10261:10340   */\n      tag_194\n      tag_61\n      jump\t// in\n    tag_194:\n        /* \"#utility.yul\":10223:10342   */\n    tag_193:\n        /* \"#utility.yul\":10381:10382   */\n      0x00\n        /* \"#utility.yul\":10406:10467   */\n      tag_195\n        /* \"#utility.yul\":10459:10466   */\n      dup5\n        /* \"#utility.yul\":10450:10456   */\n      dup3\n        /* \"#utility.yul\":10439:10448   */\n      dup6\n        /* \"#utility.yul\":10435:10457   */\n      add\n        /* \"#utility.yul\":10406:10467   */\n      tag_90\n      jump\t// in\n    tag_195:\n        /* \"#utility.yul\":10396:10467   */\n      swap2\n      pop\n        /* \"#utility.yul\":10352:10477   */\n      pop\n        /* \"#utility.yul\":10139:10484   */\n      swap3\n      swap2\n      pop\n      pop\n      jump\t// out\n        /* \"#utility.yul\":10490:10822   */\n    tag_59:\n        /* \"#utility.yul\":10611:10615   */\n      0x00\n        /* \"#utility.yul\":10649:10651   */\n      0x40\n        /* \"#utility.yul\":10638:10647   */\n      dup3\n        /* \"#utility.yul\":10634:10652   */\n      add\n        /* \"#utility.yul\":10626:10652   */\n      swap1\n      pop\n        /* \"#utility.yul\":10662:10733   */\n      tag_197\n        /* \"#utility.yul\":10730:10731   */\n      0x00\n        /* \"#utility.yul\":10719:10728   */\n      dup4\n        /* \"#utility.yul\":10715:10732   */\n      add\n        /* \"#utility.yul\":10706:10712   */\n      dup6\n        /* \"#utility.yul\":10662:10733   */\n      tag_70\n      jump\t// in\n    tag_197:\n        /* \"#utility.yul\":10743:10815   */\n      tag_198\n        /* \"#utility.yul\":10811:10813   */\n      0x20\n        /* \"#utility.yul\":10800:10809   */\n      dup4\n        /* \"#utility.yul\":10796:10814   */\n      add\n        /* \"#utility.yul\":10787:10793   */\n      dup5\n        /* \"#utility.yul\":10743:10815   */\n      tag_71\n      jump\t// in\n    tag_198:\n        /* \"#utility.yul\":10490:10822   */\n      swap4\n      swap3\n      pop\n      pop\n      pop\n      jump\t// out\n\n    auxdata: 0xa2646970667358221220f3b0b13ad24b1756d94c1144d256c43d80cf2ca5265070ceb65d845eb58a210164736f6c63430008170033\n}\n",
				"bytecode": {
					"linkReferences": {},
					"object": "608060405234801561000f575f80fd5b50604051610e86380380610e8683398181016040528101906100319190610114565b335f806101000a81548173ffffffffffffffffffffffffffffffffffffffff021916908373ffffffffffffffffffffffffffffffffffffffff1602179055508060015f6101000a81548173ffffffffffffffffffffffffffffffffffffffff021916908373ffffffffffffffffffffffffffffffffffffffff1602179055505061013f565b5f80fd5b5f73ffffffffffffffffffffffffffffffffffffffff82169050919050565b5f6100e3826100ba565b9050919050565b6100f3816100d9565b81146100fd575f80fd5b50565b5f8151905061010e816100ea565b92915050565b5f60208284031215610129576101286100b6565b5b5f61013684828501610100565b91505092915050565b610d3a8061014c5f395ff3fe608060405234801561000f575f80fd5b5060043610610060575f3560e01c806324e9edb0146100645780638a2405a81461006e5780638da5cb5b1461008a5780638fe123d7146100a8578063f046395a146100c4578063fc0c546a146100f9575b5f80fd5b61006c610117565b005b6100886004803603810190610083919061086f565b610241565b005b61009261049a565b60405161009f91906108ce565b60405180910390f35b6100c260048036038101906100bd91906108e7565b6104bd565b005b6100de60048036038101906100d991906108e7565b610736565b6040516100f09695949392919061093b565b60405180910390f35b6101016107b9565b60405161010e91906109f5565b60405180910390f35b60025f3373ffffffffffffffffffffffffffffffffffffffff1673ffffffffffffffffffffffffffffffffffffffff1681526020019081526020015f2060040160149054906101000a900460ff166101a4576040517f08c379a000000000000000000000000000000000000000000000000000000000815260040161019b90610a68565b60405180910390fd5b5f60025f3373ffffffffffffffffffffffffffffffffffffffff1673ffffffffffffffffffffffffffffffffffffffff1681526020019081526020015f2060040160146101000a81548160ff0219169083151502179055503373ffffffffffffffffffffffffffffffffffffffff167f5213c53f2b929aa370ea1f22f57b571b8a8d78a193eb26b0d9596561e335aa0460405160405180910390a2565b5f151560025f3373ffffffffffffffffffffffffffffffffffffffff1673ffffffffffffffffffffffffffffffffffffffff1681526020019081526020015f2060040160149054906101000a900460ff161515146102d4576040517f08c379a00000000000000000000000000000000000000000000000000000000081526004016102cb90610ad0565b60405180910390fd5b6040518060c001604052803373ffffffffffffffffffffffffffffffffffffffff16815260200183815260200182815260200182426103139190610b1b565b81526020018473ffffffffffffffffffffffffffffffffffffffff1681526020016001151581525060025f3373ffffffffffffffffffffffffffffffffffffffff1673ffffffffffffffffffffffffffffffffffffffff1681526020019081526020015f205f820151815f015f6101000a81548173ffffffffffffffffffffffffffffffffffffffff021916908373ffffffffffffffffffffffffffffffffffffffff1602179055506020820151816001015560408201518160020155606082015181600301556080820151816004015f6101000a81548173ffffffffffffffffffffffffffffffffffffffff021916908373ffffffffffffffffffffffffffffffffffffffff16021790555060a08201518160040160146101000a81548160ff0219169083151502179055509050503373ffffffffffffffffffffffffffffffffffffffff167f0f4fdeecf05012d6c4c168ac40ca0114e4dd83bc3ce3013c4ea7091c7b8922f384848460405161048d93929190610b4e565b60405180910390a2505050565b5f8054906101000a900473ffffffffffffffffffffffffffffffffffffffff1681565b5f60025f8373ffffffffffffffffffffffffffffffffffffffff1673ffffffffffffffffffffffffffffffffffffffff1681526020019081526020015f2090508060040160149054906101000a900460ff1661054e576040517f08c379a000000000000000000000000000000000000000000000000000000000815260040161054590610bcd565b60405180910390fd5b8060030154421015610595576040517f08c379a000000000000000000000000000000000000000000000000000000000815260040161058c90610c35565b60405180910390fd5b806002015481600301546105a99190610b1b565b816003018190555060015f9054906101000a900473ffffffffffffffffffffffffffffffffffffffff1673ffffffffffffffffffffffffffffffffffffffff166323b872dd825f015f9054906101000a900473ffffffffffffffffffffffffffffffffffffffff16836004015f9054906101000a900473ffffffffffffffffffffffffffffffffffffffff1684600101546040518463ffffffff1660e01b815260040161065893929190610c53565b6020604051808303815f875af1158015610674573d5f803e3d5ffd5b505050506040513d601f19601f820116820180604052508101906106989190610cb2565b50805f015f9054906101000a900473ffffffffffffffffffffffffffffffffffffffff1673ffffffffffffffffffffffffffffffffffffffff167f0538ab32a957d2b55d0ec70a4029e73fdf19f500832839b1d7bafcfbca2a5630826004015f9054906101000a900473ffffffffffffffffffffffffffffffffffffffff16836001015460405161072a929190610cdd565b60405180910390a25050565b6002602052805f5260405f205f91509050805f015f9054906101000a900473ffffffffffffffffffffffffffffffffffffffff1690806001015490806002015490806003015490806004015f9054906101000a900473ffffffffffffffffffffffffffffffffffffffff16908060040160149054906101000a900460ff16905086565b60015f9054906101000a900473ffffffffffffffffffffffffffffffffffffffff1681565b5f80fd5b5f73ffffffffffffffffffffffffffffffffffffffff82169050919050565b5f61080b826107e2565b9050919050565b61081b81610801565b8114610825575f80fd5b50565b5f8135905061083681610812565b92915050565b5f819050919050565b61084e8161083c565b8114610858575f80fd5b50565b5f8135905061086981610845565b92915050565b5f805f60608486031215610886576108856107de565b5b5f61089386828701610828565b93505060206108a48682870161085b565b92505060406108b58682870161085b565b9150509250925092565b6108c881610801565b82525050565b5f6020820190506108e15f8301846108bf565b92915050565b5f602082840312156108fc576108fb6107de565b5b5f61090984828501610828565b91505092915050565b61091b8161083c565b82525050565b5f8115159050919050565b61093581610921565b82525050565b5f60c08201905061094e5f8301896108bf565b61095b6020830188610912565b6109686040830187610912565b6109756060830186610912565b61098260808301856108bf565b61098f60a083018461092c565b979650505050505050565b5f819050919050565b5f6109bd6109b86109b3846107e2565b61099a565b6107e2565b9050919050565b5f6109ce826109a3565b9050919050565b5f6109df826109c4565b9050919050565b6109ef816109d5565b82525050565b5f602082019050610a085f8301846109e6565b92915050565b5f82825260208201905092915050565b7f4e6f2061637469766520737562736372697074696f6e000000000000000000005f82015250565b5f610a52601683610a0e565b9150610a5d82610a1e565b602082019050919050565b5f6020820190508181035f830152610a7f81610a46565b9050919050565b7f537562736372697074696f6e20616c72656164792065786973747300000000005f82015250565b5f610aba601b83610a0e565b9150610ac582610a86565b602082019050919050565b5f6020820190508181035f830152610ae781610aae565b9050919050565b7f4e487b71000000000000000000000000000000000000000000000000000000005f52601160045260245ffd5b5f610b258261083c565b9150610b308361083c565b9250828201905080821115610b4857610b47610aee565b5b92915050565b5f606082019050610b615f8301866108bf565b610b6e6020830185610912565b610b7b6040830184610912565b949350505050565b7f537562736372697074696f6e206e6f74206163746976650000000000000000005f82015250565b5f610bb7601783610a0e565b9150610bc282610b83565b602082019050919050565b5f6020820190508181035f830152610be481610bab565b9050919050565b7f5061796d656e74206e6f742064756500000000000000000000000000000000005f82015250565b5f610c1f600f83610a0e565b9150610c2a82610beb565b602082019050919050565b5f6020820190508181035f830152610c4c81610c13565b9050919050565b5f606082019050610c665f8301866108bf565b610c7360208301856108bf565b610c806040830184610912565b949350505050565b610c9181610921565b8114610c9b575f80fd5b50565b5f81519050610cac81610c88565b92915050565b5f60208284031215610cc757610cc66107de565b5b5f610cd484828501610c9e565b91505092915050565b5f604082019050610cf05f8301856108bf565b610cfd6020830184610912565b939250505056fea2646970667358221220f3b0b13ad24b1756d94c1144d256c43d80cf2ca5265070ceb65d845eb58a210164736f6c63430008170033",
					"opcodes": "PUSH1 0x80 PUSH1 0x40 MSTORE CALLVALUE DUP1 ISZERO PUSH2 0xF JUMPI PUSH0 DUP1 REVERT JUMPDEST POP PUSH1 0x40 MLOAD PUSH2 0xE86 CODESIZE SUB DUP1 PUSH2 0xE86 DUP4 CODECOPY DUP2 DUP2 ADD PUSH1 0x40 MSTORE DUP2 ADD SWAP1 PUSH2 0x31 SWAP2 SWAP1 PUSH2 0x114 JUMP JUMPDEST CALLER PUSH0 DUP1 PUSH2 0x100 EXP DUP2 SLOAD DUP2 PUSH20 0xFFFFFFFFFFFFFFFFFFFFFFFFFFFFFFFFFFFFFFFF MUL NOT AND SWAP1 DUP4 PUSH20 0xFFFFFFFFFFFFFFFFFFFFFFFFFFFFFFFFFFFFFFFF AND MUL OR SWAP1 SSTORE POP DUP1 PUSH1 0x1 PUSH0 PUSH2 0x100 EXP DUP2 SLOAD DUP2 PUSH20 0xFFFFFFFFFFFFFFFFFFFFFFFFFFFFFFFFFFFFFFFF MUL NOT AND SWAP1 DUP4 PUSH20 0xFFFFFFFFFFFFFFFFFFFFFFFFFFFFFFFFFFFFFFFF AND MUL OR SWAP1 SSTORE POP POP PUSH2 0x13F JUMP JUMPDEST PUSH0 DUP1 REVERT JUMPDEST PUSH0 PUSH20 0xFFFFFFFFFFFFFFFFFFFFFFFFFFFFFFFFFFFFFFFF DUP3 AND SWAP1 POP SWAP2 SWAP1 POP JUMP JUMPDEST PUSH0 PUSH2 0xE3 DUP3 PUSH2 0xBA JUMP JUMPDEST SWAP1 POP SWAP2 SWAP1 POP JUMP JUMPDEST PUSH2 0xF3 DUP2 PUSH2 0xD9 JUMP JUMPDEST DUP2 EQ PUSH2 0xFD JUMPI PUSH0 DUP1 REVERT JUMPDEST POP JUMP JUMPDEST PUSH0 DUP2 MLOAD SWAP1 POP PUSH2 0x10E DUP2 PUSH2 0xEA JUMP JUMPDEST SWAP3 SWAP2 POP POP JUMP JUMPDEST PUSH0 PUSH1 0x20 DUP3 DUP5 SUB SLT ISZERO PUSH2 0x129 JUMPI PUSH2 0x128 PUSH2 0xB6 JUMP JUMPDEST JUMPDEST PUSH0 PUSH2 0x136 DUP5 DUP3 DUP6 ADD PUSH2 0x100 JUMP JUMPDEST SWAP2 POP POP SWAP3 SWAP2 POP POP JUMP JUMPDEST PUSH2 0xD3A DUP1 PUSH2 0x14C PUSH0 CODECOPY PUSH0 RETURN INVALID PUSH1 0x80 PUSH1 0x40 MSTORE CALLVALUE DUP1 ISZERO PUSH2 0xF JUMPI PUSH0 DUP1 REVERT JUMPDEST POP PUSH1 0x4 CALLDATASIZE LT PUSH2 0x60 JUMPI PUSH0 CALLDATALOAD PUSH1 0xE0 SHR DUP1 PUSH4 0x24E9EDB0 EQ PUSH2 0x64 JUMPI DUP1 PUSH4 0x8A2405A8 EQ PUSH2 0x6E JUMPI DUP1 PUSH4 0x8DA5CB5B EQ PUSH2 0x8A JUMPI DUP1 PUSH4 0x8FE123D7 EQ PUSH2 0xA8 JUMPI DUP1 PUSH4 0xF046395A EQ PUSH2 0xC4 JUMPI DUP1 PUSH4 0xFC0C546A EQ PUSH2 0xF9 JUMPI JUMPDEST PUSH0 DUP1 REVERT JUMPDEST PUSH2 0x6C PUSH2 0x117 JUMP JUMPDEST STOP JUMPDEST PUSH2 0x88 PUSH1 0x4 DUP1 CALLDATASIZE SUB DUP2 ADD SWAP1 PUSH2 0x83 SWAP2 SWAP1 PUSH2 0x86F JUMP JUMPDEST PUSH2 0x241 JUMP JUMPDEST STOP JUMPDEST PUSH2 0x92 PUSH2 0x49A JUMP JUMPDEST PUSH1 0x40 MLOAD PUSH2 0x9F SWAP2 SWAP1 PUSH2 0x8CE JUMP JUMPDEST PUSH1 0x40 MLOAD DUP1 SWAP2 SUB SWAP1 RETURN JUMPDEST PUSH2 0xC2 PUSH1 0x4 DUP1 CALLDATASIZE SUB DUP2 ADD SWAP1 PUSH2 0xBD SWAP2 SWAP1 PUSH2 0x8E7 JUMP JUMPDEST PUSH2 0x4BD JUMP JUMPDEST STOP JUMPDEST PUSH2 0xDE PUSH1 0x4 DUP1 CALLDATASIZE SUB DUP2 ADD SWAP1 PUSH2 0xD9 SWAP2 SWAP1 PUSH2 0x8E7 JUMP JUMPDEST PUSH2 0x736 JUMP JUMPDEST PUSH1 0x40 MLOAD PUSH2 0xF0 SWAP7 SWAP6 SWAP5 SWAP4 SWAP3 SWAP2 SWAP1 PUSH2 0x93B JUMP JUMPDEST PUSH1 0x40 MLOAD DUP1 SWAP2 SUB SWAP1 RETURN JUMPDEST PUSH2 0x101 PUSH2 0x7B9 JUMP JUMPDEST PUSH1 0x40 MLOAD PUSH2 0x10E SWAP2 SWAP1 PUSH2 0x9F5 JUMP JUMPDEST PUSH1 0x40 MLOAD DUP1 SWAP2 SUB SWAP1 RETURN JUMPDEST PUSH1 0x2 PUSH0 CALLER PUSH20 0xFFFFFFFFFFFFFFFFFFFFFFFFFFFFFFFFFFFFFFFF AND PUSH20 0xFFFFFFFFFFFFFFFFFFFFFFFFFFFFFFFFFFFFFFFF AND DUP2 MSTORE PUSH1 0x20 ADD SWAP1 DUP2 MSTORE PUSH1 0x20 ADD PUSH0 KECCAK256 PUSH1 0x4 ADD PUSH1 0x14 SWAP1 SLOAD SWAP1 PUSH2 0x100 EXP SWAP1 DIV PUSH1 0xFF AND PUSH2 0x1A4 JUMPI PUSH1 0x40 MLOAD PUSH32 0x8C379A000000000000000000000000000000000000000000000000000000000 DUP2 MSTORE PUSH1 0x4 ADD PUSH2 0x19B SWAP1 PUSH2 0xA68 JUMP JUMPDEST PUSH1 0x40 MLOAD DUP1 SWAP2 SUB SWAP1 REVERT JUMPDEST PUSH0 PUSH1 0x2 PUSH0 CALLER PUSH20 0xFFFFFFFFFFFFFFFFFFFFFFFFFFFFFFFFFFFFFFFF AND PUSH20 0xFFFFFFFFFFFFFFFFFFFFFFFFFFFFFFFFFFFFFFFF AND DUP2 MSTORE PUSH1 0x20 ADD SWAP1 DUP2 MSTORE PUSH1 0x20 ADD PUSH0 KECCAK256 PUSH1 0x4 ADD PUSH1 0x14 PUSH2 0x100 EXP DUP2 SLOAD DUP2 PUSH1 0xFF MUL NOT AND SWAP1 DUP4 ISZERO ISZERO MUL OR SWAP1 SSTORE POP CALLER PUSH20 0xFFFFFFFFFFFFFFFFFFFFFFFFFFFFFFFFFFFFFFFF AND PUSH32 0x5213C53F2B929AA370EA1F22F57B571B8A8D78A193EB26B0D9596561E335AA04 PUSH1 0x40 MLOAD PUSH1 0x40 MLOAD DUP1 SWAP2 SUB SWAP1 LOG2 JUMP JUMPDEST PUSH0 ISZERO ISZERO PUSH1 0x2 PUSH0 CALLER PUSH20 0xFFFFFFFFFFFFFFFFFFFFFFFFFFFFFFFFFFFFFFFF AND PUSH20 0xFFFFFFFFFFFFFFFFFFFFFFFFFFFFFFFFFFFFFFFF AND DUP2 MSTORE PUSH1 0x20 ADD SWAP1 DUP2 MSTORE PUSH1 0x20 ADD PUSH0 KECCAK256 PUSH1 0x4 ADD PUSH1 0x14 SWAP1 SLOAD SWAP1 PUSH2 0x100 EXP SWAP1 DIV PUSH1 0xFF AND ISZERO ISZERO EQ PUSH2 0x2D4 JUMPI PUSH1 0x40 MLOAD PUSH32 0x8C379A000000000000000000000000000000000000000000000000000000000 DUP2 MSTORE PUSH1 0x4 ADD PUSH2 0x2CB SWAP1 PUSH2 0xAD0 JUMP JUMPDEST PUSH1 0x40 MLOAD DUP1 SWAP2 SUB SWAP1 REVERT JUMPDEST PUSH1 0x40 MLOAD DUP1 PUSH1 0xC0 ADD PUSH1 0x40 MSTORE DUP1 CALLER PUSH20 0xFFFFFFFFFFFFFFFFFFFFFFFFFFFFFFFFFFFFFFFF AND DUP2 MSTORE PUSH1 0x20 ADD DUP4 DUP2 MSTORE PUSH1 0x20 ADD DUP3 DUP2 MSTORE PUSH1 0x20 ADD DUP3 TIMESTAMP PUSH2 0x313 SWAP2 SWAP1 PUSH2 0xB1B JUMP JUMPDEST DUP2 MSTORE PUSH1 0x20 ADD DUP5 PUSH20 0xFFFFFFFFFFFFFFFFFFFFFFFFFFFFFFFFFFFFFFFF AND DUP2 MSTORE PUSH1 0x20 ADD PUSH1 0x1 ISZERO ISZERO DUP2 MSTORE POP PUSH1 0x2 PUSH0 CALLER PUSH20 0xFFFFFFFFFFFFFFFFFFFFFFFFFFFFFFFFFFFFFFFF AND PUSH20 0xFFFFFFFFFFFFFFFFFFFFFFFFFFFFFFFFFFFFFFFF AND DUP2 MSTORE PUSH1 0x20 ADD SWAP1 DUP2 MSTORE PUSH1 0x20 ADD PUSH0 KECCAK256 PUSH0 DUP3 ADD MLOAD DUP2 PUSH0 ADD PUSH0 PUSH2 0x100 EXP DUP2 SLOAD DUP2 PUSH20 0xFFFFFFFFFFFFFFFFFFFFFFFFFFFFFFFFFFFFFFFF MUL NOT AND SWAP1 DUP4 PUSH20 0xFFFFFFFFFFFFFFFFFFFFFFFFFFFFFFFFFFFFFFFF AND MUL OR SWAP1 SSTORE POP PUSH1 0x20 DUP3 ADD MLOAD DUP2 PUSH1 0x1 ADD SSTORE PUSH1 0x40 DUP3 ADD MLOAD DUP2 PUSH1 0x2 ADD SSTORE PUSH1 0x60 DUP3 ADD MLOAD DUP2 PUSH1 0x3 ADD SSTORE PUSH1 0x80 DUP3 ADD MLOAD DUP2 PUSH1 0x4 ADD PUSH0 PUSH2 0x100 EXP DUP2 SLOAD DUP2 PUSH20 0xFFFFFFFFFFFFFFFFFFFFFFFFFFFFFFFFFFFFFFFF MUL NOT AND SWAP1 DUP4 PUSH20 0xFFFFFFFFFFFFFFFFFFFFFFFFFFFFFFFFFFFFFFFF AND MUL OR SWAP1 SSTORE POP PUSH1 0xA0 DUP3 ADD MLOAD DUP2 PUSH1 0x4 ADD PUSH1 0x14 PUSH2 0x100 EXP DUP2 SLOAD DUP2 PUSH1 0xFF MUL NOT AND SWAP1 DUP4 ISZERO ISZERO MUL OR SWAP1 SSTORE POP SWAP1 POP POP CALLER PUSH20 0xFFFFFFFFFFFFFFFFFFFFFFFFFFFFFFFFFFFFFFFF AND PUSH32 0xF4FDEECF05012D6C4C168AC40CA0114E4DD83BC3CE3013C4EA7091C7B8922F3 DUP5 DUP5 DUP5 PUSH1 0x40 MLOAD PUSH2 0x48D SWAP4 SWAP3 SWAP2 SWAP1 PUSH2 0xB4E JUMP JUMPDEST PUSH1 0x40 MLOAD DUP1 SWAP2 SUB SWAP1 LOG2 POP POP POP JUMP JUMPDEST PUSH0 DUP1 SLOAD SWAP1 PUSH2 0x100 EXP SWAP1 DIV PUSH20 0xFFFFFFFFFFFFFFFFFFFFFFFFFFFFFFFFFFFFFFFF AND DUP2 JUMP JUMPDEST PUSH0 PUSH1 0x2 PUSH0 DUP4 PUSH20 0xFFFFFFFFFFFFFFFFFFFFFFFFFFFFFFFFFFFFFFFF AND PUSH20 0xFFFFFFFFFFFFFFFFFFFFFFFFFFFFFFFFFFFFFFFF AND DUP2 MSTORE PUSH1 0x20 ADD SWAP1 DUP2 MSTORE PUSH1 0x20 ADD PUSH0 KECCAK256 SWAP1 POP DUP1 PUSH1 0x4 ADD PUSH1 0x14 SWAP1 SLOAD SWAP1 PUSH2 0x100 EXP SWAP1 DIV PUSH1 0xFF AND PUSH2 0x54E JUMPI PUSH1 0x40 MLOAD PUSH32 0x8C379A000000000000000000000000000000000000000000000000000000000 DUP2 MSTORE PUSH1 0x4 ADD PUSH2 0x545 SWAP1 PUSH2 0xBCD JUMP JUMPDEST PUSH1 0x40 MLOAD DUP1 SWAP2 SUB SWAP1 REVERT JUMPDEST DUP1 PUSH1 0x3 ADD SLOAD TIMESTAMP LT ISZERO PUSH2 0x595 JUMPI PUSH1 0x40 MLOAD PUSH32 0x8C379A000000000000000000000000000000000000000000000000000000000 DUP2 MSTORE PUSH1 0x4 ADD PUSH2 0x58C SWAP1 PUSH2 0xC35 JUMP JUMPDEST PUSH1 0x40 MLOAD DUP1 SWAP2 SUB SWAP1 REVERT JUMPDEST DUP1 PUSH1 0x2 ADD SLOAD DUP2 PUSH1 0x3 ADD SLOAD PUSH2 0x5A9 SWAP2 SWAP1 PUSH2 0xB1B JUMP JUMPDEST DUP2 PUSH1 0x3 ADD DUP2 SWAP1 SSTORE POP PUSH1 0x1 PUSH0 SWAP1 SLOAD SWAP1 PUSH2 0x100 EXP SWAP1 DIV PUSH20 0xFFFFFFFFFFFFFFFFFFFFFFFFFFFFFFFFFFFFFFFF AND PUSH20 0xFFFFFFFFFFFFFFFFFFFFFFFFFFFFFFFFFFFFFFFF AND PUSH4 0x23B872DD DUP3 PUSH0 ADD PUSH0 SWAP1 SLOAD SWAP1 PUSH2 0x100 EXP SWAP1 DIV PUSH20 0xFFFFFFFFFFFFFFFFFFFFFFFFFFFFFFFFFFFFFFFF AND DUP4 PUSH1 0x4 ADD PUSH0 SWAP1 SLOAD SWAP1 PUSH2 0x100 EXP SWAP1 DIV PUSH20 0xFFFFFFFFFFFFFFFFFFFFFFFFFFFFFFFFFFFFFFFF AND DUP5 PUSH1 0x1 ADD SLOAD PUSH1 0x40 MLOAD DUP5 PUSH4 0xFFFFFFFF AND PUSH1 0xE0 SHL DUP2 MSTORE PUSH1 0x4 ADD PUSH2 0x658 SWAP4 SWAP3 SWAP2 SWAP1 PUSH2 0xC53 JUMP JUMPDEST PUSH1 0x20 PUSH1 0x40 MLOAD DUP1 DUP4 SUB DUP2 PUSH0 DUP8 GAS CALL ISZERO DUP1 ISZERO PUSH2 0x674 JUMPI RETURNDATASIZE PUSH0 DUP1 RETURNDATACOPY RETURNDATASIZE PUSH0 REVERT JUMPDEST POP POP POP POP PUSH1 0x40 MLOAD RETURNDATASIZE PUSH1 0x1F NOT PUSH1 0x1F DUP3 ADD AND DUP3 ADD DUP1 PUSH1 0x40 MSTORE POP DUP2 ADD SWAP1 PUSH2 0x698 SWAP2 SWAP1 PUSH2 0xCB2 JUMP JUMPDEST POP DUP1 PUSH0 ADD PUSH0 SWAP1 SLOAD SWAP1 PUSH2 0x100 EXP SWAP1 DIV PUSH20 0xFFFFFFFFFFFFFFFFFFFFFFFFFFFFFFFFFFFFFFFF AND PUSH20 0xFFFFFFFFFFFFFFFFFFFFFFFFFFFFFFFFFFFFFFFF AND PUSH32 0x538AB32A957D2B55D0EC70A4029E73FDF19F500832839B1D7BAFCFBCA2A5630 DUP3 PUSH1 0x4 ADD PUSH0 SWAP1 SLOAD SWAP1 PUSH2 0x100 EXP SWAP1 DIV PUSH20 0xFFFFFFFFFFFFFFFFFFFFFFFFFFFFFFFFFFFFFFFF AND DUP4 PUSH1 0x1 ADD SLOAD PUSH1 0x40 MLOAD PUSH2 0x72A SWAP3 SWAP2 SWAP1 PUSH2 0xCDD JUMP JUMPDEST PUSH1 0x40 MLOAD DUP1 SWAP2 SUB SWAP1 LOG2 POP POP JUMP JUMPDEST PUSH1 0x2 PUSH1 0x20 MSTORE DUP1 PUSH0 MSTORE PUSH1 0x40 PUSH0 KECCAK256 PUSH0 SWAP2 POP SWAP1 POP DUP1 PUSH0 ADD PUSH0 SWAP1 SLOAD SWAP1 PUSH2 0x100 EXP SWAP1 DIV PUSH20 0xFFFFFFFFFFFFFFFFFFFFFFFFFFFFFFFFFFFFFFFF AND SWAP1 DUP1 PUSH1 0x1 ADD SLOAD SWAP1 DUP1 PUSH1 0x2 ADD SLOAD SWAP1 DUP1 PUSH1 0x3 ADD SLOAD SWAP1 DUP1 PUSH1 0x4 ADD PUSH0 SWAP1 SLOAD SWAP1 PUSH2 0x100 EXP SWAP1 DIV PUSH20 0xFFFFFFFFFFFFFFFFFFFFFFFFFFFFFFFFFFFFFFFF AND SWAP1 DUP1 PUSH1 0x4 ADD PUSH1 0x14 SWAP1 SLOAD SWAP1 PUSH2 0x100 EXP SWAP1 DIV PUSH1 0xFF AND SWAP1 POP DUP7 JUMP JUMPDEST PUSH1 0x1 PUSH0 SWAP1 SLOAD SWAP1 PUSH2 0x100 EXP SWAP1 DIV PUSH20 0xFFFFFFFFFFFFFFFFFFFFFFFFFFFFFFFFFFFFFFFF AND DUP2 JUMP JUMPDEST PUSH0 DUP1 REVERT JUMPDEST PUSH0 PUSH20 0xFFFFFFFFFFFFFFFFFFFFFFFFFFFFFFFFFFFFFFFF DUP3 AND SWAP1 POP SWAP2 SWAP1 POP JUMP JUMPDEST PUSH0 PUSH2 0x80B DUP3 PUSH2 0x7E2 JUMP JUMPDEST SWAP1 POP SWAP2 SWAP1 POP JUMP JUMPDEST PUSH2 0x81B DUP2 PUSH2 0x801 JUMP JUMPDEST DUP2 EQ PUSH2 0x825 JUMPI PUSH0 DUP1 REVERT JUMPDEST POP JUMP JUMPDEST PUSH0 DUP2 CALLDATALOAD SWAP1 POP PUSH2 0x836 DUP2 PUSH2 0x812 JUMP JUMPDEST SWAP3 SWAP2 POP POP JUMP JUMPDEST PUSH0 DUP2 SWAP1 POP SWAP2 SWAP1 POP JUMP JUMPDEST PUSH2 0x84E DUP2 PUSH2 0x83C JUMP JUMPDEST DUP2 EQ PUSH2 0x858 JUMPI PUSH0 DUP1 REVERT JUMPDEST POP JUMP JUMPDEST PUSH0 DUP2 CALLDATALOAD SWAP1 POP PUSH2 0x869 DUP2 PUSH2 0x845 JUMP JUMPDEST SWAP3 SWAP2 POP POP JUMP JUMPDEST PUSH0 DUP1 PUSH0 PUSH1 0x60 DUP5 DUP7 SUB SLT ISZERO PUSH2 0x886 JUMPI PUSH2 0x885 PUSH2 0x7DE JUMP JUMPDEST JUMPDEST PUSH0 PUSH2 0x893 DUP7 DUP3 DUP8 ADD PUSH2 0x828 JUMP JUMPDEST SWAP4 POP POP PUSH1 0x20 PUSH2 0x8A4 DUP7 DUP3 DUP8 ADD PUSH2 0x85B JUMP JUMPDEST SWAP3 POP POP PUSH1 0x40 PUSH2 0x8B5 DUP7 DUP3 DUP8 ADD PUSH2 0x85B JUMP JUMPDEST SWAP2 POP POP SWAP3 POP SWAP3 POP SWAP3 JUMP JUMPDEST PUSH2 0x8C8 DUP2 PUSH2 0x801 JUMP JUMPDEST DUP3 MSTORE POP POP JUMP JUMPDEST PUSH0 PUSH1 0x20 DUP3 ADD SWAP1 POP PUSH2 0x8E1 PUSH0 DUP4 ADD DUP5 PUSH2 0x8BF JUMP JUMPDEST SWAP3 SWAP2 POP POP JUMP JUMPDEST PUSH0 PUSH1 0x20 DUP3 DUP5 SUB SLT ISZERO PUSH2 0x8FC JUMPI PUSH2 0x8FB PUSH2 0x7DE JUMP JUMPDEST JUMPDEST PUSH0 PUSH2 0x909 DUP5 DUP3 DUP6 ADD PUSH2 0x828 JUMP JUMPDEST SWAP2 POP POP SWAP3 SWAP2 POP POP JUMP JUMPDEST PUSH2 0x91B DUP2 PUSH2 0x83C JUMP JUMPDEST DUP3 MSTORE POP POP JUMP JUMPDEST PUSH0 DUP2 ISZERO ISZERO SWAP1 POP SWAP2 SWAP1 POP JUMP JUMPDEST PUSH2 0x935 DUP2 PUSH2 0x921 JUMP JUMPDEST DUP3 MSTORE POP POP JUMP JUMPDEST PUSH0 PUSH1 0xC0 DUP3 ADD SWAP1 POP PUSH2 0x94E PUSH0 DUP4 ADD DUP10 PUSH2 0x8BF JUMP JUMPDEST PUSH2 0x95B PUSH1 0x20 DUP4 ADD DUP9 PUSH2 0x912 JUMP JUMPDEST PUSH2 0x968 PUSH1 0x40 DUP4 ADD DUP8 PUSH2 0x912 JUMP JUMPDEST PUSH2 0x975 PUSH1 0x60 DUP4 ADD DUP7 PUSH2 0x912 JUMP JUMPDEST PUSH2 0x982 PUSH1 0x80 DUP4 ADD DUP6 PUSH2 0x8BF JUMP JUMPDEST PUSH2 0x98F PUSH1 0xA0 DUP4 ADD DUP5 PUSH2 0x92C JUMP JUMPDEST SWAP8 SWAP7 POP POP POP POP POP POP POP JUMP JUMPDEST PUSH0 DUP2 SWAP1 POP SWAP2 SWAP1 POP JUMP JUMPDEST PUSH0 PUSH2 0x9BD PUSH2 0x9B8 PUSH2 0x9B3 DUP5 PUSH2 0x7E2 JUMP JUMPDEST PUSH2 0x99A JUMP JUMPDEST PUSH2 0x7E2 JUMP JUMPDEST SWAP1 POP SWAP2 SWAP1 POP JUMP JUMPDEST PUSH0 PUSH2 0x9CE DUP3 PUSH2 0x9A3 JUMP JUMPDEST SWAP1 POP SWAP2 SWAP1 POP JUMP JUMPDEST PUSH0 PUSH2 0x9DF DUP3 PUSH2 0x9C4 JUMP JUMPDEST SWAP1 POP SWAP2 SWAP1 POP JUMP JUMPDEST PUSH2 0x9EF DUP2 PUSH2 0x9D5 JUMP JUMPDEST DUP3 MSTORE POP POP JUMP JUMPDEST PUSH0 PUSH1 0x20 DUP3 ADD SWAP1 POP PUSH2 0xA08 PUSH0 DUP4 ADD DUP5 PUSH2 0x9E6 JUMP JUMPDEST SWAP3 SWAP2 POP POP JUMP JUMPDEST PUSH0 DUP3 DUP3 MSTORE PUSH1 0x20 DUP3 ADD SWAP1 POP SWAP3 SWAP2 POP POP JUMP JUMPDEST PUSH32 0x4E6F2061637469766520737562736372697074696F6E00000000000000000000 PUSH0 DUP3 ADD MSTORE POP JUMP JUMPDEST PUSH0 PUSH2 0xA52 PUSH1 0x16 DUP4 PUSH2 0xA0E JUMP JUMPDEST SWAP2 POP PUSH2 0xA5D DUP3 PUSH2 0xA1E JUMP JUMPDEST PUSH1 0x20 DUP3 ADD SWAP1 POP SWAP2 SWAP1 POP JUMP JUMPDEST PUSH0 PUSH1 0x20 DUP3 ADD SWAP1 POP DUP2 DUP2 SUB PUSH0 DUP4 ADD MSTORE PUSH2 0xA7F DUP2 PUSH2 0xA46 JUMP JUMPDEST SWAP1 POP SWAP2 SWAP1 POP JUMP JUMPDEST PUSH32 0x537562736372697074696F6E20616C7265616479206578697374730000000000 PUSH0 DUP3 ADD MSTORE POP JUMP JUMPDEST PUSH0 PUSH2 0xABA PUSH1 0x1B DUP4 PUSH2 0xA0E JUMP JUMPDEST SWAP2 POP PUSH2 0xAC5 DUP3 PUSH2 0xA86 JUMP JUMPDEST PUSH1 0x20 DUP3 ADD SWAP1 POP SWAP2 SWAP1 POP JUMP JUMPDEST PUSH0 PUSH1 0x20 DUP3 ADD SWAP1 POP DUP2 DUP2 SUB PUSH0 DUP4 ADD MSTORE PUSH2 0xAE7 DUP2 PUSH2 0xAAE JUMP JUMPDEST SWAP1 POP SWAP2 SWAP1 POP JUMP JUMPDEST PUSH32 0x4E487B7100000000000000000000000000000000000000000000000000000000 PUSH0 MSTORE PUSH1 0x11 PUSH1 0x4 MSTORE PUSH1 0x24 PUSH0 REVERT JUMPDEST PUSH0 PUSH2 0xB25 DUP3 PUSH2 0x83C JUMP JUMPDEST SWAP2 POP PUSH2 0xB30 DUP4 PUSH2 0x83C JUMP JUMPDEST SWAP3 POP DUP3 DUP3 ADD SWAP1 POP DUP1 DUP3 GT ISZERO PUSH2 0xB48 JUMPI PUSH2 0xB47 PUSH2 0xAEE JUMP JUMPDEST JUMPDEST SWAP3 SWAP2 POP POP JUMP JUMPDEST PUSH0 PUSH1 0x60 DUP3 ADD SWAP1 POP PUSH2 0xB61 PUSH0 DUP4 ADD DUP7 PUSH2 0x8BF JUMP JUMPDEST PUSH2 0xB6E PUSH1 0x20 DUP4 ADD DUP6 PUSH2 0x912 JUMP JUMPDEST PUSH2 0xB7B PUSH1 0x40 DUP4 ADD DUP5 PUSH2 0x912 JUMP JUMPDEST SWAP5 SWAP4 POP POP POP POP JUMP JUMPDEST PUSH32 0x537562736372697074696F6E206E6F7420616374697665000000000000000000 PUSH0 DUP3 ADD MSTORE POP JUMP JUMPDEST PUSH0 PUSH2 0xBB7 PUSH1 0x17 DUP4 PUSH2 0xA0E JUMP JUMPDEST SWAP2 POP PUSH2 0xBC2 DUP3 PUSH2 0xB83 JUMP JUMPDEST PUSH1 0x20 DUP3 ADD SWAP1 POP SWAP2 SWAP1 POP JUMP JUMPDEST PUSH0 PUSH1 0x20 DUP3 ADD SWAP1 POP DUP2 DUP2 SUB PUSH0 DUP4 ADD MSTORE PUSH2 0xBE4 DUP2 PUSH2 0xBAB JUMP JUMPDEST SWAP1 POP SWAP2 SWAP1 POP JUMP JUMPDEST PUSH32 0x5061796D656E74206E6F74206475650000000000000000000000000000000000 PUSH0 DUP3 ADD MSTORE POP JUMP JUMPDEST PUSH0 PUSH2 0xC1F PUSH1 0xF DUP4 PUSH2 0xA0E JUMP JUMPDEST SWAP2 POP PUSH2 0xC2A DUP3 PUSH2 0xBEB JUMP JUMPDEST PUSH1 0x20 DUP3 ADD SWAP1 POP SWAP2 SWAP1 POP JUMP JUMPDEST PUSH0 PUSH1 0x20 DUP3 ADD SWAP1 POP DUP2 DUP2 SUB PUSH0 DUP4 ADD MSTORE PUSH2 0xC4C DUP2 PUSH2 0xC13 JUMP JUMPDEST SWAP1 POP SWAP2 SWAP1 POP JUMP JUMPDEST PUSH0 PUSH1 0x60 DUP3 ADD SWAP1 POP PUSH2 0xC66 PUSH0 DUP4 ADD DUP7 PUSH2 0x8BF JUMP JUMPDEST PUSH2 0xC73 PUSH1 0x20 DUP4 ADD DUP6 PUSH2 0x8BF JUMP JUMPDEST PUSH2 0xC80 PUSH1 0x40 DUP4 ADD DUP5 PUSH2 0x912 JUMP JUMPDEST SWAP5 SWAP4 POP POP POP POP JUMP JUMPDEST PUSH2 0xC91 DUP2 PUSH2 0x921 JUMP JUMPDEST DUP2 EQ PUSH2 0xC9B JUMPI PUSH0 DUP1 REVERT JUMPDEST POP JUMP JUMPDEST PUSH0 DUP2 MLOAD SWAP1 POP PUSH2 0xCAC DUP2 PUSH2 0xC88 JUMP JUMPDEST SWAP3 SWAP2 POP POP JUMP JUMPDEST PUSH0 PUSH1 0x20 DUP3 DUP5 SUB SLT ISZERO PUSH2 0xCC7 JUMPI PUSH2 0xCC6 PUSH2 0x7DE JUMP JUMPDEST JUMPDEST PUSH0 PUSH2 0xCD4 DUP5 DUP3 DUP6 ADD PUSH2 0xC9E JUMP JUMPDEST SWAP2 POP POP SWAP3 SWAP2 POP POP JUMP JUMPDEST PUSH0 PUSH1 0x40 DUP3 ADD SWAP1 POP PUSH2 0xCF0 PUSH0 DUP4 ADD DUP6 PUSH2 0x8BF JUMP JUMPDEST PUSH2 0xCFD PUSH1 0x20 DUP4 ADD DUP5 PUSH2 0x912 JUMP JUMPDEST SWAP4 SWAP3 POP POP POP JUMP INVALID LOG2 PUSH5 0x6970667358 0x22 SLT KECCAK256 RETURN 0xB0 0xB1 GASPRICE 0xD2 0x4B OR JUMP 0xD9 0x4C GT PREVRANDAO 0xD2 JUMP 0xC4 RETURNDATASIZE DUP1 0xCF 0x2C 0xA5 0x26 POP PUSH17 0xCEB65D845EB58A210164736F6C63430008 OR STOP CALLER "
				},
				"gasEstimates": {
					"creation": {
						"codeDepositCost": "677200",
						"executionCost": "infinite",
						"totalCost": "infinite"
					},
					"external": {
						"cancelSubscription()": "27986",
						"createSubscription(address,uint256,uint256)": "infinite",
						"owner()": "2527",
						"processPayment(address)": "infinite",
						"subscriptions(address)": "infinite",
						"token()": "infinite"
					}
				},
				"methodIdentifiers": {
					"cancelSubscription()": "24e9edb0",
					"createSubscription(address,uint256,uint256)": "8a2405a8",
					"owner()": "8da5cb5b",
					"processPayment(address)": "8fe123d7",
					"subscriptions(address)": "f046395a",
					"token()": "fc0c546a"
				}
			},
			"storageLayout": {
				"storage": [
					{
						"astId": 24,
						"contract": "contracts/agentpay.sol:AgentPay",
						"label": "owner",
						"offset": 0,
						"slot": "0",
						"type": "t_address"
					},
					{
						"astId": 27,
						"contract": "contracts/agentpay.sol:AgentPay",
						"label": "token",
						"offset": 0,
						"slot": "1",
						"type": "t_contract(IERC20)22"
					},
					{
						"astId": 45,
						"contract": "contracts/agentpay.sol:AgentPay",
						"label": "subscriptions",
						"offset": 0,
						"slot": "2",
						"type": "t_mapping(t_address,t_struct(Subscription)40_storage)"
					}
				],
				"types": {
					"t_address": {
						"encoding": "inplace",
						"label": "address",
						"numberOfBytes": "20"
					},
					"t_bool": {
						"encoding": "inplace",
						"label": "bool",
						"numberOfBytes": "1"
					},
					"t_contract(IERC20)22": {
						"encoding": "inplace",
						"label": "contract IERC20",
						"numberOfBytes": "20"
					},
					"t_mapping(t_address,t_struct(Subscription)40_storage)": {
						"encoding": "mapping",
						"key": "t_address",
						"label": "mapping(address => struct AgentPay.Subscription)",
						"numberOfBytes": "32",
						"value": "t_struct(Subscription)40_storage"
					},
					"t_struct(Subscription)40_storage": {
						"encoding": "inplace",
						"label": "struct AgentPay.Subscription",
						"members": [
							{
								"astId": 29,
								"contract": "contracts/agentpay.sol:AgentPay",
								"label": "subscriber",
								"offset": 0,
								"slot": "0",
								"type": "t_address"
							},
							{
								"astId": 31,
								"contract": "contracts/agentpay.sol:AgentPay",
								"label": "amount",
								"offset": 0,
								"slot": "1",
								"type": "t_uint256"
							},
							{
								"astId": 33,
								"contract": "contracts/agentpay.sol:AgentPay",
								"label": "interval",
								"offset": 0,
								"slot": "2",
								"type": "t_uint256"
							},
							{
								"astId": 35,
								"contract": "contracts/agentpay.sol:AgentPay",
								"label": "nextPayment",
								"offset": 0,
								"slot": "3",
								"type": "t_uint256"
							},
							{
								"astId": 37,
								"contract": "contracts/agentpay.sol:AgentPay",
								"label": "recipient",
								"offset": 0,
								"slot": "4",
								"type": "t_address"
							},
							{
								"astId": 39,
								"contract": "contracts/agentpay.sol:AgentPay",
								"label": "active",
								"offset": 20,
								"slot": "4",
								"type": "t_bool"
							}
						],
						"numberOfBytes": "160"
					},
					"t_uint256": {
						"encoding": "inplace",
						"label": "uint256",
						"numberOfBytes": "32"
					}
				}
			},
			"userdoc": {
				"kind": "user",
				"methods": {},
				"version": 1
			}
		}
	}
}